{
  "_format": "hh-sol-artifact-1",
  "contractName": "EasySwapOrderBook",
  "sourceName": "contracts/EasySwapOrderBook.sol",
  "abi": [
    {
      "inputs": [],
      "name": "CannotFindNextEmptyKey",
      "type": "error"
    },
    {
      "inputs": [],
      "name": "CannotFindPrevEmptyKey",
      "type": "error"
    },
    {
      "inputs": [
        {
          "internalType": "OrderKey",
          "name": "orderKey",
          "type": "bytes32"
        }
      ],
      "name": "CannotInsertDuplicateOrder",
      "type": "error"
    },
    {
      "inputs": [],
      "name": "CannotInsertEmptyKey",
      "type": "error"
    },
    {
      "inputs": [],
      "name": "CannotInsertExistingKey",
      "type": "error"
    },
    {
      "inputs": [],
      "name": "CannotRemoveEmptyKey",
      "type": "error"
    },
    {
      "inputs": [],
      "name": "CannotRemoveMissingKey",
      "type": "error"
    },
    {
      "inputs": [],
      "name": "EnforcedPause",
      "type": "error"
    },
    {
      "inputs": [],
      "name": "ExpectedPause",
      "type": "error"
    },
    {
      "inputs": [],
      "name": "InvalidInitialization",
      "type": "error"
    },
    {
      "inputs": [],
      "name": "NotInitializing",
      "type": "error"
    },
    {
      "inputs": [
        {
          "internalType": "address",
          "name": "owner",
          "type": "address"
        }
      ],
      "name": "OwnableInvalidOwner",
      "type": "error"
    },
    {
      "inputs": [
        {
          "internalType": "address",
          "name": "account",
          "type": "address"
        }
      ],
      "name": "OwnableUnauthorizedAccount",
      "type": "error"
    },
    {
      "inputs": [],
      "name": "ReentrancyGuardReentrantCall",
      "type": "error"
    },
    {
      "anonymous": false,
      "inputs": [
        {
          "indexed": false,
          "internalType": "uint256",
          "name": "offset",
          "type": "uint256"
        },
        {
          "indexed": false,
          "internalType": "bytes",
          "name": "msg",
          "type": "bytes"
        }
      ],
      "name": "BatchMatchInnerError",
      "type": "event"
    },
    {
      "anonymous": false,
      "inputs": [],
      "name": "EIP712DomainChanged",
      "type": "event"
    },
    {
      "anonymous": false,
      "inputs": [
        {
          "indexed": false,
          "internalType": "uint64",
          "name": "version",
          "type": "uint64"
        }
      ],
      "name": "Initialized",
      "type": "event"
    },
    {
      "anonymous": false,
      "inputs": [
        {
          "indexed": true,
          "internalType": "OrderKey",
          "name": "orderKey",
          "type": "bytes32"
        },
        {
          "indexed": true,
          "internalType": "address",
          "name": "maker",
          "type": "address"
        }
      ],
      "name": "LogCancel",
      "type": "event"
    },
    {
      "anonymous": false,
      "inputs": [
        {
          "indexed": false,
          "internalType": "OrderKey",
          "name": "orderKey",
          "type": "bytes32"
        },
        {
          "indexed": true,
          "internalType": "enum LibOrder.Side",
          "name": "side",
          "type": "uint8"
        },
        {
          "indexed": true,
          "internalType": "enum LibOrder.SaleKind",
          "name": "saleKind",
          "type": "uint8"
        },
        {
          "indexed": true,
          "internalType": "address",
          "name": "maker",
          "type": "address"
        },
        {
          "components": [
            {
              "internalType": "uint256",
              "name": "tokenId",
              "type": "uint256"
            },
            {
              "internalType": "address",
              "name": "collection",
              "type": "address"
            },
            {
              "internalType": "uint96",
              "name": "amount",
              "type": "uint96"
            }
          ],
          "indexed": false,
          "internalType": "struct LibOrder.Asset",
          "name": "nft",
          "type": "tuple"
        },
        {
          "indexed": false,
          "internalType": "Price",
          "name": "price",
          "type": "uint128"
        },
        {
          "indexed": false,
          "internalType": "uint64",
          "name": "expiry",
          "type": "uint64"
        },
        {
          "indexed": false,
          "internalType": "uint64",
          "name": "salt",
          "type": "uint64"
        }
      ],
      "name": "LogMake",
      "type": "event"
    },
    {
      "anonymous": false,
      "inputs": [
        {
          "indexed": true,
          "internalType": "OrderKey",
          "name": "makeOrderKey",
          "type": "bytes32"
        },
        {
          "indexed": true,
          "internalType": "OrderKey",
          "name": "takeOrderKey",
          "type": "bytes32"
        },
        {
          "components": [
            {
              "internalType": "enum LibOrder.Side",
              "name": "side",
              "type": "uint8"
            },
            {
              "internalType": "enum LibOrder.SaleKind",
              "name": "saleKind",
              "type": "uint8"
            },
            {
              "internalType": "address",
              "name": "maker",
              "type": "address"
            },
            {
              "components": [
                {
                  "internalType": "uint256",
                  "name": "tokenId",
                  "type": "uint256"
                },
                {
                  "internalType": "address",
                  "name": "collection",
                  "type": "address"
                },
                {
                  "internalType": "uint96",
                  "name": "amount",
                  "type": "uint96"
                }
              ],
              "internalType": "struct LibOrder.Asset",
              "name": "nft",
              "type": "tuple"
            },
            {
              "internalType": "Price",
              "name": "price",
              "type": "uint128"
            },
            {
              "internalType": "uint64",
              "name": "expiry",
              "type": "uint64"
            },
            {
              "internalType": "uint64",
              "name": "salt",
              "type": "uint64"
            }
          ],
          "indexed": false,
          "internalType": "struct LibOrder.Order",
          "name": "makeOrder",
          "type": "tuple"
        },
        {
          "components": [
            {
              "internalType": "enum LibOrder.Side",
              "name": "side",
              "type": "uint8"
            },
            {
              "internalType": "enum LibOrder.SaleKind",
              "name": "saleKind",
              "type": "uint8"
            },
            {
              "internalType": "address",
              "name": "maker",
              "type": "address"
            },
            {
              "components": [
                {
                  "internalType": "uint256",
                  "name": "tokenId",
                  "type": "uint256"
                },
                {
                  "internalType": "address",
                  "name": "collection",
                  "type": "address"
                },
                {
                  "internalType": "uint96",
                  "name": "amount",
                  "type": "uint96"
                }
              ],
              "internalType": "struct LibOrder.Asset",
              "name": "nft",
              "type": "tuple"
            },
            {
              "internalType": "Price",
              "name": "price",
              "type": "uint128"
            },
            {
              "internalType": "uint64",
              "name": "expiry",
              "type": "uint64"
            },
            {
              "internalType": "uint64",
              "name": "salt",
              "type": "uint64"
            }
          ],
          "indexed": false,
          "internalType": "struct LibOrder.Order",
          "name": "takeOrder",
          "type": "tuple"
        },
        {
          "indexed": false,
          "internalType": "uint128",
          "name": "fillPrice",
          "type": "uint128"
        }
      ],
      "name": "LogMatch",
      "type": "event"
    },
    {
      "anonymous": false,
      "inputs": [
        {
          "indexed": false,
          "internalType": "OrderKey",
          "name": "orderKey",
          "type": "bytes32"
        },
        {
          "indexed": false,
          "internalType": "uint64",
          "name": "salt",
          "type": "uint64"
        }
      ],
      "name": "LogSkipOrder",
      "type": "event"
    },
    {
      "anonymous": false,
      "inputs": [
        {
          "indexed": true,
          "internalType": "uint128",
          "name": "newProtocolShare",
          "type": "uint128"
        }
      ],
      "name": "LogUpdatedProtocolShare",
      "type": "event"
    },
    {
      "anonymous": false,
      "inputs": [
        {
          "indexed": false,
          "internalType": "address",
          "name": "recipient",
          "type": "address"
        },
        {
          "indexed": false,
          "internalType": "uint256",
          "name": "amount",
          "type": "uint256"
        }
      ],
      "name": "LogWithdrawETH",
      "type": "event"
    },
    {
      "anonymous": false,
      "inputs": [
        {
          "indexed": true,
          "internalType": "address",
          "name": "previousOwner",
          "type": "address"
        },
        {
          "indexed": true,
          "internalType": "address",
          "name": "newOwner",
          "type": "address"
        }
      ],
      "name": "OwnershipTransferred",
      "type": "event"
    },
    {
      "anonymous": false,
      "inputs": [
        {
          "indexed": false,
          "internalType": "address",
          "name": "account",
          "type": "address"
        }
      ],
      "name": "Paused",
      "type": "event"
    },
    {
      "anonymous": false,
      "inputs": [
        {
          "indexed": false,
          "internalType": "address",
          "name": "account",
          "type": "address"
        }
      ],
      "name": "Unpaused",
      "type": "event"
    },
    {
      "inputs": [
        {
          "internalType": "OrderKey[]",
          "name": "orderKeys",
          "type": "bytes32[]"
        }
      ],
      "name": "cancelOrders",
      "outputs": [
        {
          "internalType": "bool[]",
          "name": "successes",
          "type": "bool[]"
        }
      ],
      "stateMutability": "nonpayable",
      "type": "function"
    },
    {
      "inputs": [
        {
          "components": [
            {
              "internalType": "OrderKey",
              "name": "oldOrderKey",
              "type": "bytes32"
            },
            {
              "components": [
                {
                  "internalType": "enum LibOrder.Side",
                  "name": "side",
                  "type": "uint8"
                },
                {
                  "internalType": "enum LibOrder.SaleKind",
                  "name": "saleKind",
                  "type": "uint8"
                },
                {
                  "internalType": "address",
                  "name": "maker",
                  "type": "address"
                },
                {
                  "components": [
                    {
                      "internalType": "uint256",
                      "name": "tokenId",
                      "type": "uint256"
                    },
                    {
                      "internalType": "address",
                      "name": "collection",
                      "type": "address"
                    },
                    {
                      "internalType": "uint96",
                      "name": "amount",
                      "type": "uint96"
                    }
                  ],
                  "internalType": "struct LibOrder.Asset",
                  "name": "nft",
                  "type": "tuple"
                },
                {
                  "internalType": "Price",
                  "name": "price",
                  "type": "uint128"
                },
                {
                  "internalType": "uint64",
                  "name": "expiry",
                  "type": "uint64"
                },
                {
                  "internalType": "uint64",
                  "name": "salt",
                  "type": "uint64"
                }
              ],
              "internalType": "struct LibOrder.Order",
              "name": "newOrder",
              "type": "tuple"
            }
          ],
          "internalType": "struct LibOrder.EditDetail[]",
          "name": "editDetails",
          "type": "tuple[]"
        }
      ],
      "name": "editOrders",
      "outputs": [
        {
          "internalType": "OrderKey[]",
          "name": "newOrderKeys",
          "type": "bytes32[]"
        }
      ],
      "stateMutability": "payable",
      "type": "function"
    },
    {
      "inputs": [],
      "name": "eip712Domain",
      "outputs": [
        {
          "internalType": "bytes1",
          "name": "fields",
          "type": "bytes1"
        },
        {
          "internalType": "string",
          "name": "name",
          "type": "string"
        },
        {
          "internalType": "string",
          "name": "version",
          "type": "string"
        },
        {
          "internalType": "uint256",
          "name": "chainId",
          "type": "uint256"
        },
        {
          "internalType": "address",
          "name": "verifyingContract",
          "type": "address"
        },
        {
          "internalType": "bytes32",
          "name": "salt",
          "type": "bytes32"
        },
        {
          "internalType": "uint256[]",
          "name": "extensions",
          "type": "uint256[]"
        }
      ],
      "stateMutability": "view",
      "type": "function"
    },
    {
      "inputs": [
        {
          "internalType": "OrderKey",
          "name": "",
          "type": "bytes32"
        }
      ],
      "name": "filledAmount",
      "outputs": [
        {
          "internalType": "uint256",
          "name": "",
          "type": "uint256"
        }
      ],
      "stateMutability": "view",
      "type": "function"
    },
    {
      "inputs": [
        {
          "internalType": "address",
          "name": "collection",
          "type": "address"
        },
        {
          "internalType": "uint256",
          "name": "tokenId",
          "type": "uint256"
        },
        {
          "internalType": "enum LibOrder.Side",
          "name": "side",
          "type": "uint8"
        },
        {
          "internalType": "enum LibOrder.SaleKind",
          "name": "saleKind",
          "type": "uint8"
        }
      ],
      "name": "getBestOrder",
      "outputs": [
        {
          "components": [
            {
              "internalType": "enum LibOrder.Side",
              "name": "side",
              "type": "uint8"
            },
            {
              "internalType": "enum LibOrder.SaleKind",
              "name": "saleKind",
              "type": "uint8"
            },
            {
              "internalType": "address",
              "name": "maker",
              "type": "address"
            },
            {
              "components": [
                {
                  "internalType": "uint256",
                  "name": "tokenId",
                  "type": "uint256"
                },
                {
                  "internalType": "address",
                  "name": "collection",
                  "type": "address"
                },
                {
                  "internalType": "uint96",
                  "name": "amount",
                  "type": "uint96"
                }
              ],
              "internalType": "struct LibOrder.Asset",
              "name": "nft",
              "type": "tuple"
            },
            {
              "internalType": "Price",
              "name": "price",
              "type": "uint128"
            },
            {
              "internalType": "uint64",
              "name": "expiry",
              "type": "uint64"
            },
            {
              "internalType": "uint64",
              "name": "salt",
              "type": "uint64"
            }
          ],
          "internalType": "struct LibOrder.Order",
          "name": "orderResult",
          "type": "tuple"
        }
      ],
      "stateMutability": "view",
      "type": "function"
    },
    {
      "inputs": [
        {
          "internalType": "address",
          "name": "collection",
          "type": "address"
        },
        {
          "internalType": "enum LibOrder.Side",
          "name": "side",
          "type": "uint8"
        }
      ],
      "name": "getBestPrice",
      "outputs": [
        {
          "internalType": "Price",
          "name": "price",
          "type": "uint128"
        }
      ],
      "stateMutability": "view",
      "type": "function"
    },
    {
      "inputs": [
        {
          "internalType": "address",
          "name": "collection",
          "type": "address"
        },
        {
          "internalType": "enum LibOrder.Side",
          "name": "side",
          "type": "uint8"
        },
        {
          "internalType": "Price",
          "name": "price",
          "type": "uint128"
        }
      ],
      "name": "getNextBestPrice",
      "outputs": [
        {
          "internalType": "Price",
          "name": "nextBestPrice",
          "type": "uint128"
        }
      ],
      "stateMutability": "view",
      "type": "function"
    },
    {
      "inputs": [
        {
          "internalType": "address",
          "name": "collection",
          "type": "address"
        },
        {
          "internalType": "uint256",
          "name": "tokenId",
          "type": "uint256"
        },
        {
          "internalType": "enum LibOrder.Side",
          "name": "side",
          "type": "uint8"
        },
        {
          "internalType": "enum LibOrder.SaleKind",
          "name": "saleKind",
          "type": "uint8"
        },
        {
          "internalType": "uint256",
          "name": "count",
          "type": "uint256"
        },
        {
          "internalType": "Price",
          "name": "price",
          "type": "uint128"
        },
        {
          "internalType": "OrderKey",
          "name": "firstOrderKey",
          "type": "bytes32"
        }
      ],
      "name": "getOrders",
      "outputs": [
        {
          "components": [
            {
              "internalType": "enum LibOrder.Side",
              "name": "side",
              "type": "uint8"
            },
            {
              "internalType": "enum LibOrder.SaleKind",
              "name": "saleKind",
              "type": "uint8"
            },
            {
              "internalType": "address",
              "name": "maker",
              "type": "address"
            },
            {
              "components": [
                {
                  "internalType": "uint256",
                  "name": "tokenId",
                  "type": "uint256"
                },
                {
                  "internalType": "address",
                  "name": "collection",
                  "type": "address"
                },
                {
                  "internalType": "uint96",
                  "name": "amount",
                  "type": "uint96"
                }
              ],
              "internalType": "struct LibOrder.Asset",
              "name": "nft",
              "type": "tuple"
            },
            {
              "internalType": "Price",
              "name": "price",
              "type": "uint128"
            },
            {
              "internalType": "uint64",
              "name": "expiry",
              "type": "uint64"
            },
            {
              "internalType": "uint64",
              "name": "salt",
              "type": "uint64"
            }
          ],
          "internalType": "struct LibOrder.Order[]",
          "name": "resultOrders",
          "type": "tuple[]"
        },
        {
          "internalType": "OrderKey",
          "name": "nextOrderKey",
          "type": "bytes32"
        }
      ],
      "stateMutability": "view",
      "type": "function"
    },
    {
      "inputs": [
        {
          "internalType": "uint128",
          "name": "newProtocolShare",
          "type": "uint128"
        },
        {
          "internalType": "address",
          "name": "newVault",
          "type": "address"
        },
        {
          "internalType": "string",
          "name": "EIP712Name",
          "type": "string"
        },
        {
          "internalType": "string",
          "name": "EIP712Version",
          "type": "string"
        }
      ],
      "name": "initialize",
      "outputs": [],
      "stateMutability": "nonpayable",
      "type": "function"
    },
    {
      "inputs": [
        {
          "components": [
            {
              "internalType": "enum LibOrder.Side",
              "name": "side",
              "type": "uint8"
            },
            {
              "internalType": "enum LibOrder.SaleKind",
              "name": "saleKind",
              "type": "uint8"
            },
            {
              "internalType": "address",
              "name": "maker",
              "type": "address"
            },
            {
              "components": [
                {
                  "internalType": "uint256",
                  "name": "tokenId",
                  "type": "uint256"
                },
                {
                  "internalType": "address",
                  "name": "collection",
                  "type": "address"
                },
                {
                  "internalType": "uint96",
                  "name": "amount",
                  "type": "uint96"
                }
              ],
              "internalType": "struct LibOrder.Asset",
              "name": "nft",
              "type": "tuple"
            },
            {
              "internalType": "Price",
              "name": "price",
              "type": "uint128"
            },
            {
              "internalType": "uint64",
              "name": "expiry",
              "type": "uint64"
            },
            {
              "internalType": "uint64",
              "name": "salt",
              "type": "uint64"
            }
          ],
          "internalType": "struct LibOrder.Order[]",
          "name": "newOrders",
          "type": "tuple[]"
        }
      ],
      "name": "makeOrders",
      "outputs": [
        {
          "internalType": "OrderKey[]",
          "name": "newOrderKeys",
          "type": "bytes32[]"
        }
      ],
      "stateMutability": "payable",
      "type": "function"
    },
    {
      "inputs": [
        {
          "components": [
            {
              "internalType": "enum LibOrder.Side",
              "name": "side",
              "type": "uint8"
            },
            {
              "internalType": "enum LibOrder.SaleKind",
              "name": "saleKind",
              "type": "uint8"
            },
            {
              "internalType": "address",
              "name": "maker",
              "type": "address"
            },
            {
              "components": [
                {
                  "internalType": "uint256",
                  "name": "tokenId",
                  "type": "uint256"
                },
                {
                  "internalType": "address",
                  "name": "collection",
                  "type": "address"
                },
                {
                  "internalType": "uint96",
                  "name": "amount",
                  "type": "uint96"
                }
              ],
              "internalType": "struct LibOrder.Asset",
              "name": "nft",
              "type": "tuple"
            },
            {
              "internalType": "Price",
              "name": "price",
              "type": "uint128"
            },
            {
              "internalType": "uint64",
              "name": "expiry",
              "type": "uint64"
            },
            {
              "internalType": "uint64",
              "name": "salt",
              "type": "uint64"
            }
          ],
          "internalType": "struct LibOrder.Order",
          "name": "sellOrder",
          "type": "tuple"
        },
        {
          "components": [
            {
              "internalType": "enum LibOrder.Side",
              "name": "side",
              "type": "uint8"
            },
            {
              "internalType": "enum LibOrder.SaleKind",
              "name": "saleKind",
              "type": "uint8"
            },
            {
              "internalType": "address",
              "name": "maker",
              "type": "address"
            },
            {
              "components": [
                {
                  "internalType": "uint256",
                  "name": "tokenId",
                  "type": "uint256"
                },
                {
                  "internalType": "address",
                  "name": "collection",
                  "type": "address"
                },
                {
                  "internalType": "uint96",
                  "name": "amount",
                  "type": "uint96"
                }
              ],
              "internalType": "struct LibOrder.Asset",
              "name": "nft",
              "type": "tuple"
            },
            {
              "internalType": "Price",
              "name": "price",
              "type": "uint128"
            },
            {
              "internalType": "uint64",
              "name": "expiry",
              "type": "uint64"
            },
            {
              "internalType": "uint64",
              "name": "salt",
              "type": "uint64"
            }
          ],
          "internalType": "struct LibOrder.Order",
          "name": "buyOrder",
          "type": "tuple"
        }
      ],
      "name": "matchOrder",
      "outputs": [],
      "stateMutability": "payable",
      "type": "function"
    },
    {
      "inputs": [
        {
          "components": [
            {
              "internalType": "enum LibOrder.Side",
              "name": "side",
              "type": "uint8"
            },
            {
              "internalType": "enum LibOrder.SaleKind",
              "name": "saleKind",
              "type": "uint8"
            },
            {
              "internalType": "address",
              "name": "maker",
              "type": "address"
            },
            {
              "components": [
                {
                  "internalType": "uint256",
                  "name": "tokenId",
                  "type": "uint256"
                },
                {
                  "internalType": "address",
                  "name": "collection",
                  "type": "address"
                },
                {
                  "internalType": "uint96",
                  "name": "amount",
                  "type": "uint96"
                }
              ],
              "internalType": "struct LibOrder.Asset",
              "name": "nft",
              "type": "tuple"
            },
            {
              "internalType": "Price",
              "name": "price",
              "type": "uint128"
            },
            {
              "internalType": "uint64",
              "name": "expiry",
              "type": "uint64"
            },
            {
              "internalType": "uint64",
              "name": "salt",
              "type": "uint64"
            }
          ],
          "internalType": "struct LibOrder.Order",
          "name": "sellOrder",
          "type": "tuple"
        },
        {
          "components": [
            {
              "internalType": "enum LibOrder.Side",
              "name": "side",
              "type": "uint8"
            },
            {
              "internalType": "enum LibOrder.SaleKind",
              "name": "saleKind",
              "type": "uint8"
            },
            {
              "internalType": "address",
              "name": "maker",
              "type": "address"
            },
            {
              "components": [
                {
                  "internalType": "uint256",
                  "name": "tokenId",
                  "type": "uint256"
                },
                {
                  "internalType": "address",
                  "name": "collection",
                  "type": "address"
                },
                {
                  "internalType": "uint96",
                  "name": "amount",
                  "type": "uint96"
                }
              ],
              "internalType": "struct LibOrder.Asset",
              "name": "nft",
              "type": "tuple"
            },
            {
              "internalType": "Price",
              "name": "price",
              "type": "uint128"
            },
            {
              "internalType": "uint64",
              "name": "expiry",
              "type": "uint64"
            },
            {
              "internalType": "uint64",
              "name": "salt",
              "type": "uint64"
            }
          ],
          "internalType": "struct LibOrder.Order",
          "name": "buyOrder",
          "type": "tuple"
        },
        {
          "internalType": "uint256",
          "name": "msgValue",
          "type": "uint256"
        }
      ],
      "name": "matchOrderWithoutPayback",
      "outputs": [
        {
          "internalType": "uint128",
          "name": "costValue",
          "type": "uint128"
        }
      ],
      "stateMutability": "payable",
      "type": "function"
    },
    {
      "inputs": [
        {
          "components": [
            {
              "components": [
                {
                  "internalType": "enum LibOrder.Side",
                  "name": "side",
                  "type": "uint8"
                },
                {
                  "internalType": "enum LibOrder.SaleKind",
                  "name": "saleKind",
                  "type": "uint8"
                },
                {
                  "internalType": "address",
                  "name": "maker",
                  "type": "address"
                },
                {
                  "components": [
                    {
                      "internalType": "uint256",
                      "name": "tokenId",
                      "type": "uint256"
                    },
                    {
                      "internalType": "address",
                      "name": "collection",
                      "type": "address"
                    },
                    {
                      "internalType": "uint96",
                      "name": "amount",
                      "type": "uint96"
                    }
                  ],
                  "internalType": "struct LibOrder.Asset",
                  "name": "nft",
                  "type": "tuple"
                },
                {
                  "internalType": "Price",
                  "name": "price",
                  "type": "uint128"
                },
                {
                  "internalType": "uint64",
                  "name": "expiry",
                  "type": "uint64"
                },
                {
                  "internalType": "uint64",
                  "name": "salt",
                  "type": "uint64"
                }
              ],
              "internalType": "struct LibOrder.Order",
              "name": "sellOrder",
              "type": "tuple"
            },
            {
              "components": [
                {
                  "internalType": "enum LibOrder.Side",
                  "name": "side",
                  "type": "uint8"
                },
                {
                  "internalType": "enum LibOrder.SaleKind",
                  "name": "saleKind",
                  "type": "uint8"
                },
                {
                  "internalType": "address",
                  "name": "maker",
                  "type": "address"
                },
                {
                  "components": [
                    {
                      "internalType": "uint256",
                      "name": "tokenId",
                      "type": "uint256"
                    },
                    {
                      "internalType": "address",
                      "name": "collection",
                      "type": "address"
                    },
                    {
                      "internalType": "uint96",
                      "name": "amount",
                      "type": "uint96"
                    }
                  ],
                  "internalType": "struct LibOrder.Asset",
                  "name": "nft",
                  "type": "tuple"
                },
                {
                  "internalType": "Price",
                  "name": "price",
                  "type": "uint128"
                },
                {
                  "internalType": "uint64",
                  "name": "expiry",
                  "type": "uint64"
                },
                {
                  "internalType": "uint64",
                  "name": "salt",
                  "type": "uint64"
                }
              ],
              "internalType": "struct LibOrder.Order",
              "name": "buyOrder",
              "type": "tuple"
            }
          ],
          "internalType": "struct LibOrder.MatchDetail[]",
          "name": "matchDetails",
          "type": "tuple[]"
        }
      ],
      "name": "matchOrders",
      "outputs": [
        {
          "internalType": "bool[]",
          "name": "successes",
          "type": "bool[]"
        }
      ],
      "stateMutability": "payable",
      "type": "function"
    },
    {
      "inputs": [
        {
          "internalType": "address",
          "name": "",
          "type": "address"
        },
        {
          "internalType": "enum LibOrder.Side",
          "name": "",
          "type": "uint8"
        },
        {
          "internalType": "Price",
          "name": "",
          "type": "uint128"
        }
      ],
      "name": "orderQueues",
      "outputs": [
        {
          "internalType": "OrderKey",
          "name": "head",
          "type": "bytes32"
        },
        {
          "internalType": "OrderKey",
          "name": "tail",
          "type": "bytes32"
        }
      ],
      "stateMutability": "view",
      "type": "function"
    },
    {
      "inputs": [
        {
          "internalType": "OrderKey",
          "name": "",
          "type": "bytes32"
        }
      ],
      "name": "orders",
      "outputs": [
        {
          "components": [
            {
              "internalType": "enum LibOrder.Side",
              "name": "side",
              "type": "uint8"
            },
            {
              "internalType": "enum LibOrder.SaleKind",
              "name": "saleKind",
              "type": "uint8"
            },
            {
              "internalType": "address",
              "name": "maker",
              "type": "address"
            },
            {
              "components": [
                {
                  "internalType": "uint256",
                  "name": "tokenId",
                  "type": "uint256"
                },
                {
                  "internalType": "address",
                  "name": "collection",
                  "type": "address"
                },
                {
                  "internalType": "uint96",
                  "name": "amount",
                  "type": "uint96"
                }
              ],
              "internalType": "struct LibOrder.Asset",
              "name": "nft",
              "type": "tuple"
            },
            {
              "internalType": "Price",
              "name": "price",
              "type": "uint128"
            },
            {
              "internalType": "uint64",
              "name": "expiry",
              "type": "uint64"
            },
            {
              "internalType": "uint64",
              "name": "salt",
              "type": "uint64"
            }
          ],
          "internalType": "struct LibOrder.Order",
          "name": "order",
          "type": "tuple"
        },
        {
          "internalType": "OrderKey",
          "name": "next",
          "type": "bytes32"
        }
      ],
      "stateMutability": "view",
      "type": "function"
    },
    {
      "inputs": [],
      "name": "owner",
      "outputs": [
        {
          "internalType": "address",
          "name": "",
          "type": "address"
        }
      ],
      "stateMutability": "view",
      "type": "function"
    },
    {
      "inputs": [],
      "name": "pause",
      "outputs": [],
      "stateMutability": "nonpayable",
      "type": "function"
    },
    {
      "inputs": [],
      "name": "paused",
      "outputs": [
        {
          "internalType": "bool",
          "name": "",
          "type": "bool"
        }
      ],
      "stateMutability": "view",
      "type": "function"
    },
    {
      "inputs": [
        {
          "internalType": "address",
          "name": "",
          "type": "address"
        },
        {
          "internalType": "enum LibOrder.Side",
          "name": "",
          "type": "uint8"
        }
      ],
      "name": "priceTrees",
      "outputs": [
        {
          "internalType": "Price",
          "name": "root",
          "type": "uint128"
        }
      ],
      "stateMutability": "view",
      "type": "function"
    },
    {
      "inputs": [],
      "name": "protocolShare",
      "outputs": [
        {
          "internalType": "uint128",
          "name": "",
          "type": "uint128"
        }
      ],
      "stateMutability": "view",
      "type": "function"
    },
    {
      "inputs": [],
      "name": "renounceOwnership",
      "outputs": [],
      "stateMutability": "nonpayable",
      "type": "function"
    },
    {
      "inputs": [
        {
          "internalType": "uint128",
          "name": "newProtocolShare",
          "type": "uint128"
        }
      ],
      "name": "setProtocolShare",
      "outputs": [],
      "stateMutability": "nonpayable",
      "type": "function"
    },
    {
      "inputs": [
        {
          "internalType": "address",
          "name": "newVault",
          "type": "address"
        }
      ],
      "name": "setVault",
      "outputs": [],
      "stateMutability": "nonpayable",
      "type": "function"
    },
    {
      "inputs": [
        {
          "internalType": "address",
          "name": "newOwner",
          "type": "address"
        }
      ],
      "name": "transferOwnership",
      "outputs": [],
      "stateMutability": "nonpayable",
      "type": "function"
    },
    {
      "inputs": [],
      "name": "unpause",
      "outputs": [],
      "stateMutability": "nonpayable",
      "type": "function"
    },
    {
      "inputs": [
        {
          "internalType": "address",
          "name": "recipient",
          "type": "address"
        },
        {
          "internalType": "uint256",
          "name": "amount",
          "type": "uint256"
        }
      ],
      "name": "withdrawETH",
      "outputs": [],
      "stateMutability": "nonpayable",
      "type": "function"
    },
    {
      "stateMutability": "payable",
      "type": "receive"
    }
  ],
  "bytecode": "0x60a080604052346100245730608052615a8f90816200002a8239608051816104cd0152f35b600080fdfe6080604052600436101561001b575b361561001957600080fd5b005b60003560e01c80630b20b7bc146101bb5780631103f315146101b657806321c77c96146101b1578063307725d9146101ac578063366c39ed146101a75780633f4ba83a146101a2578063436a5ed61461019d5780634782f779146101985780635c975abb146101935780635d52957e1461018e5780635dcc7f9c146101895780636817031b14610184578063715018a61461017f5780637d910dac1461017a578063813e7c2a146101755780638456cb591461017057806384b0196e1461016b578063877edbff14610166578063882849c9146101615780638da5cb5b1461015c5780639c3f1e90146101575780639e09126c14610152578063e471ba461461014d578063e8f27e9514610148578063f2fde38b146101435763fe971c980361000e576117c8565b61179b565b61168d565b611643565b611613565b6115cc565b6114e3565b611465565b61113b565b61101c565b610eef565b610e3a565b610df6565b610d17565b610c95565b610a5e565b61081a565b6106a1565b61061b565b610602565b61051d565b6104a3565b610301565b61025d565b6101f7565b346101e75760203660031901126101e75760043560005260356020526020604060002054604051908152f35b600080fd5b60009103126101e757565b346101e75760003660031901126101e7576068546040516001600160801b039091168152602090f35b6020908160408183019282815285518094520193019160005b828110610247575050505090565b8351151585529381019392810192600101610239565b346101e75760203660031901126101e7576001600160401b036004358181116101e757366023820112156101e75780600401359182116101e7573660248360051b830101116101e7576102c29160246102b69201611fb6565b60405191829182610220565b0390f35b6020908160408183019282815285518094520193019160005b8281106102ed575050505090565b8351855293810193928101926001016102df565b60203660031901126101e7576001600160401b036004358181116101e757366023820112156101e75780600401359182116101e75760248101906024369161012085020101116101e757610353611f5b565b61035b611f86565b61036482611e53565b90600090815b8481106103b5576102c2846001600160801b03851634811061039c575b50610390611e3f565b604051918291826102c6565b6103a96103af9134611f4e565b33614a6b565b82610387565b600060016103cc6103c7848987611ec0565b611ed6565b6103d581610989565b14610424575b6103ef816103ea848987611ec0565b612652565b806103fa8488611f21565b5261040f575b5061040a90611e9b565b61036a565b61041d9061040a9294611f35565b9290610400565b5061047861044d61044160c061043b858a88611ec0565b01611ee0565b6001600160801b031690565b61047261046660a0610460868b89611ec0565b01611efb565b6001600160601b031690565b90611f05565b6103db565b6101209060031901126101e757600490565b610120906101231901126101e75761012490565b6102603660031901126101e7576104b93661047d565b6104c23661048f565b6104ca611f5b565b307f00000000000000000000000000000000000000000000000000000000000000006001600160a01b0316146101e75760209161050b916102443591613103565b6040516001600160801b039091168152f35b346101e75760003660031901126101e757610536611983565b6000805160206159fa833981519152805460ff8116156105825760ff191690557f5db9ee0a495bf2e6ff9c91a7834c1ba4fdd244a5e8aa4e537bd38aeae4b073aa6020604051338152a1005b604051638dfc202b60e01b8152600490fd5b6001600160a01b038116036101e757565b600211156101e757565b6001600160801b038116036101e757565b35906105cb826105af565b565b60609060031901126101e7576004356105e581610594565b906024356105f2816105a5565b906044356105ff816105af565b90565b346101e757602061050b610615366105cd565b91613a63565b346101e75760403660031901126101e7577fab0f46966ebb6f17d26b8f6add4624e39fcfdeaccfeaba589d57f81cb5cb6666604060043561065b81610594565b602435610666611f86565b61066e611983565b6106788183614a6b565b82516001600160a01b0390921682526020820152a16001600080516020615a1a83398151915255005b346101e75760003660031901126101e757602060ff6000805160206159fa83398151915254166040519015158152f35b634e487b7160e01b600052604160045260246000fd5b606081019081106001600160401b0382111761070257604052565b6106d1565b60e081019081106001600160401b0382111761070257604052565b6001600160401b03811161070257604052565b604081019081106001600160401b0382111761070257604052565b60a081019081106001600160401b0382111761070257604052565b90601f801991011681019081106001600160401b0382111761070257604052565b604051906105cb82610735565b60405190608082018281106001600160401b0382111761070257604052565b6001600160401b03811161070257601f01601f191660200190565b81601f820112156101e7578035906107ea826107b8565b926107f8604051948561076b565b828452602083830101116101e757816000926020809301838601378301015290565b346101e75760803660031901126101e757600435610837816105af565b6024359061084482610594565b6001600160401b03916044358381116101e7576108659036906004016107d3565b6064358481116101e75761087d9036906004016107d3565b91600080516020615a3a833981519152549460ff8660401c1615951680159081610981575b6001149081610977575b15908161096e575b5061095c57600080516020615a3a833981519152805467ffffffffffffffff191660011790556108e8938561093757611beb565b6108ee57005b600080516020615a3a833981519152805460ff60401b19169055604051600181527fc7f505b2f371ae2175ee4913f4499e1f2633a7b5936321eed1cdaeb6115181d290602090a1005b600080516020615a3a833981519152805460ff60401b1916600160401b179055611beb565b60405163f92ee8a960e01b8152600490fd5b905015386108b4565b303b1591506108ac565b8691506108a2565b6002111561099357565b634e487b7160e01b600052602160045260246000fd5b9061010060c06105cb9380516109be81610989565b845260208101516109ce81610989565b6020858101919091526040828101516001600160a01b039081168288015260608085015180519189019190915292830151166080808801919091529101516001600160601b031660a08601528101516001600160801b03168285015260a08101516001600160401b031660e085015201516001600160401b0316910152565b610120810192916105cb91906109a9565b346101e7576080806003193601126101e75760043590610a7d82610594565b6024359160443590610a8e826105a5565b60643592610a9b846105a5565b610aa3614320565b94610aae84846139fe565b600190818614905b6001600160801b038116610ad3575b604051806102c28b82610a4d565b610af6610af182610aec8a610ae78b610daa565b610dde565b61162c565b6143c2565b51805b610b30575b5088850151610b1790610441906001600160801b031681565b610b2b57610b26908787613a63565b610ab6565b610ac5565b610b4a610b4f919992996000526000602052604060002090565b613f76565b610b5888610989565b8280610c83575b610c25575b610b6d88610989565b8280610c14575b610bcc575b80516001600160401b03610b9760a08301516001600160401b031690565b168015908115610bc2575b50610bb6575060200151805b989198610af9565b91989950509738610afe565b9050421038610ba2565b83610bd78251612998565b610be081610989565b1480610bf6575b15610b79576020015180610bae565b5083610c056020835101612998565b610c0e81610989565b14610be7565b50610c1e82610989565b8115610b74565b83610c308251612998565b610c3981610989565b1480610c65575b80610c55575b15610b64576020015180610bae565b5060608151015151851415610c46565b5083610c746020835101612998565b610c7d81610989565b14610c40565b50610c8d82610989565b838214610b5f565b346101e75760203660031901126101e757600435610cb281610594565b610cba611983565b6001600160a01b03168015610cdf57609b80546001600160a01b031916919091179055005b60405162461bcd60e51b815260206004820152601060248201526f48443a207a65726f206164647265737360801b6044820152606490fd5b346101e757600080600319360112610d8257610d31611983565b60008051602061597a83398151915280546001600160a01b0319811690915581906001600160a01b03167f8be0079c531659141344cd1fd0a4f28419497f9722a3daafe3b4186f6b6457e08280a380f35b80fd5b60409060031901126101e757600435610d9d81610594565b906024356105ff816105a5565b6001600160a01b0316600090815260026020526040902090565b6001600160a01b0316600090815260016020526040902090565b90610de881610989565b600052602052604060002090565b346101e7576020610e0636610d85565b6001600160a01b03909116600090815260018352604090206001600160801b0391610e3091610dde565b5416604051908152f35b346101e75760203660031901126101e757600435610e57816105af565b610e5f611983565b6001600160801b03166103e88111610eaa57606880546001600160801b031916821790557f0b52884d4590055c8791518c34458834f75feed662340ef0b5af2898e7a9be9f600080a2005b60405162461bcd60e51b815260206004820152601d60248201527f504d3a20657863656564206d61782070726f746f636f6c2073686172650000006044820152606490fd5b346101e75760003660031901126101e757610f08611983565b610f10611f5b565b6000805160206159fa833981519152600160ff198254161790557f62e78cea01bee320cd4e420270b5ea74000d11b0c9f74754ebdbfc544b05a2586020604051338152a1005b919082519283825260005b848110610f82575050826000602080949584010152601f8019910116010190565b602081830181015184830182015201610f61565b91610fc990949194600f60f81b8452610fbb60209660e08887015260e0860190610f56565b908482036040860152610f56565b92606083015260018060a01b03166080820152600060a082015260c081830391015281808451928381520193019160005b828110611008575050505090565b835185529381019392810192600101610ffa565b346101e75760003660031901126101e7577fa16a46d94261c7517cc8ff89f61c0ce93598e3c849801011dee649a6a557d1005415806110c4575b1561108757611063611aa9565b61106b611b5c565b906102c2611077611a47565b6040519384933091469186610f96565b60405162461bcd60e51b81526020600482015260156024820152741152540dcc4c8e88155b9a5b9a5d1a585b1a5e9959605a1b6044820152606490fd5b507fa16a46d94261c7517cc8ff89f61c0ce93598e3c849801011dee649a6a557d1015415611056565b92919060408401604085528151809152606085019060208093019060005b8482821061111c5750505050930152565b6101208561113086976001959697516109a9565b01940192910161110b565b346101e75760e03660031901126101e75760043561115881610594565b60443590602435611168836105a5565b60643592611175846105a5565b6084359060a43593611186856105af565b60c435928596849560009861119a84614372565b986001600160801b039788821661143d575050506111b885856139fe565b909192965b899760019787891493895b6111dc575b604051806102c28f8f836110ed565b818116151580611434575b1561142f57611200610af182610aec8c610ae78d610daa565b518a856113ce575b61122c575b50906112208a9796959493928a8a613a63565b909192939495966111c8565b809c9b9c1515806113c5575b156113bd57610b4a611254916000526000602052604060002090565b602090818101908151926001600160401b0361127b60a0845101516001600160401b031690565b1680151590816113b3575b50611379576112948d610989565b88806113a2575b611358575b6112a98d610989565b8880611346575b6112dd575b508e9f508d9e8d9e6112d292516112cc8383611f21565b52611f21565b50519d8b019b611208565b8d806112e98451612998565b6112f281610989565b149182611327575b505080611317575b61130c578f6112b5565b50508a9c9b9c611208565b5060608151015151891415611302565b611335919250835101612998565b61133e81610989565b148d386112fa565b506113508b610989565b8d8b146112b0565b8d6113638351612998565b61136c81610989565b1480611385575b156112a0575b5050508a9c9b9c611208565b508d61139382845101612998565b61139c81610989565b14611373565b506113ac8b610989565b8a1561129b565b9050421138611286565b9b9a9b61120d565b50838d10611238565b94855b6113df575b50600094611208565b90809592939495151580611425575b1561141a5761140c610b4a6020926000526000602052604060002090565b0151919493929190856113d1565b9094939291946113d6565b50818114156113ee565b6111cd565b50828b106111e7565b97919715611451575b5095909192966111bd565b61145e9197508686613a63565b9538611446565b6102403660031901126101e75761147b3661047d565b6114a86114873661048f565b91611490611f5b565b611498611f86565b6001600160801b03923491613103565b168034116114c5575b6001600080516020615a1a83398151915255005b34033481116114de576114d89033614a6b565b386114b1565b611e85565b346101e75760003660031901126101e75760008051602061597a833981519152546040516001600160a01b039091168152602090f35b906105cb60405161152981610707565b60c060038295805460ff811661153e81610989565b855260ff8160081c1661155081610989565b602086015260101c6001600160a01b039081166040808701919091525190611577826106e7565b600183015482526002830154908116602083015260a01c6040820152606085015201546001600160801b0381166080840152608081901c6001600160401b031660a0840152811c6001600160401b0316910152565b346101e75760203660031901126101e7576004356000526000602052610140604060002060046115fb82611519565b91015461160b60405180936109a9565b610120820152f35b346101e757602061050b61162636610d85565b906139fe565b9060018060801b0316600052602052604060002090565b346101e757611673610aec611657366105cd565b929160018060a01b031660005260026020526040600020610dde565b805460019091015460408051928352602083019190915290f35b6020806003193601126101e7576001600160401b03906004358281116101e757366023820112156101e75780600401359283116101e75760248101906024369161014086020101116101e757916116e2611f5b565b6116ea611f86565b6116f381611e53565b9260009283915b83831061174857858580341161172b575b6001600080516020615a1a83398151915255604051806102c284826102c6565b3403903482116114de576117426102c29233614a6b565b9061170b565b909192949361176f61175b858885612326565b3584611768878a87612326565b01906129e1565b82959195018092116114de57611790919461178a8288611f21565b52611e9b565b9190949293946116fa565b346101e75760203660031901126101e7576100196004356117bb81610594565b6117c3611983565b6119bc565b6020806003193601126101e7576001600160401b03906004358281116101e757366023820112156101e75780600401359283116101e75760248082019181369161024087020101116101e75761181c611f5b565b611824611f86565b61182d84611e53565b92600094855b81811061186c576102c2866001600160801b038916348110611859575b506102b6611e3f565b6103a96118669134611f4e565b82611850565b611877818387612345565b61188a6001600160801b03891634611f4e565b9060008060409384516118c5816118b78b82019463366c39ed60e01b86528d89610120810191850161245d565b03601f19810183528261076b565b5190305af46118d2612485565b92811561194257506118fc916118f6610160926118ef878d611f21565b9015159052565b016124cc565b6001600160a01b0316331461191b575b5061191690611e9b565b611833565b611916919761193582868061193b955183010191016124d6565b90611f35565b969061190c565b7f050f709fb65709f10a27682788a9d67fe74de81b310b5c34e3d32f0e2c3ac557925061197b91509261191694935191829185836124b5565b0390a1611e9b565b60008051602061597a833981519152546001600160a01b031633036119a457565b60405163118cdaa760e01b8152336004820152602490fd5b6001600160a01b03908116908115611a175760008051602061597a83398151915280546001600160a01b031981168417909155167f8be0079c531659141344cd1fd0a4f28419497f9722a3daafe3b4186f6b6457e0600080a3565b604051631e4fbdf760e01b815260006004820152602490fd5b6001600160401b0381116107025760051b60200190565b604051602081018181106001600160401b038211176107025760405260008152906000368137565b90600182811c92168015611a9f575b6020831014611a8957565b634e487b7160e01b600052602260045260246000fd5b91607f1691611a7e565b6040519060008260008051602061595a83398151915291825492611acc84611a6f565b908184526001948581169081600014611b395750600114611af6575b50506105cb9250038361076b565b9093915060005260209081600020936000915b818310611b215750506105cb93508201013880611ae8565b85548884018501529485019487945091830191611b09565b9150506105cb94506020925060ff191682840152151560051b8201013880611ae8565b6040519060008260008051602061599a83398151915291825492611b7f84611a6f565b908184526001948581169081600014611b395750600114611ba85750506105cb9250038361076b565b9093915060005260209081600020936000915b818310611bd35750506105cb93508201013880611ae8565b85548884018501529485019487945091830191611bbb565b91929092611bf7611e10565b611bff611e10565b611c07611e10565b611c0f611e10565b611c17611e10565b611c20336119bc565b611c28611e10565b611c30611e10565b600180600080516020615a1a83398151915255611c4b611e10565b611c53611e10565b6000805160206159fa833981519152805460ff19169055611c72611e10565b611c7a611e10565b611c82611e10565b611c8a611e10565b8151906001600160401b0382116107025760008051602061595a83398151915292611cbe83611cb98654611a6f565b6143e0565b60209081601f8511600114611d6e5750928080611d5e97946105cb9a999794611cff97600094611d63575b50501b916000199060031b1c19161790556144a2565b611d2860007fa16a46d94261c7517cc8ff89f61c0ce93598e3c849801011dee649a6a557d10055565b611d5160007fa16a46d94261c7517cc8ff89f61c0ce93598e3c849801011dee649a6a557d10155565b611d59611e10565b614885565b6139d1565b015192503880611ce9565b60008051602061595a8339815191526000529293929190601f1984167f42ad5d3e1f2e6e70edcf6d991b8a3023d3fca8047a131592f9edb9fd9b89d57d936000905b828210611df957505092611cff95928592611d5e99966105cb9c9b999610611de0575b505050811b0190556144a2565b015160001960f88460031b161c19169055388080611dd3565b808886978294978701518155019601940190611db0565b60ff600080516020615a3a8339815191525460401c1615611e2d57565b604051631afcd79f60e31b8152600490fd5b6001600080516020615a1a83398151915255565b90611e5d82611a30565b611e6a604051918261076b565b8281528092611e7b601f1991611a30565b0190602036910137565b634e487b7160e01b600052601160045260246000fd5b60001981146114de5760010190565b634e487b7160e01b600052603260045260246000fd5b9190811015611ed157610120020190565b611eaa565b356105ff816105a5565b356105ff816105af565b6001600160601b038116036101e757565b356105ff81611eea565b6001600160801b0391821690821602908116919082036114de57565b8051821015611ed15760209160051b010190565b6001600160801b0391821690821601919082116114de57565b919082039182116114de57565b60ff6000805160206159fa8339815191525416611f7457565b60405163d93c066560e01b8152600490fd5b600080516020615a1a8339815191526002815414611fa45760029055565b604051633ee5aeb560e01b8152600490fd5b90611fbf611f5b565b611fc7611f86565b611fd081611e53565b9160005b828110611fe6575050506105ff611e3f565b8060051b82013590600061200c612007846000526000602052604060002090565b611519565b6040818101805191956001600160a01b03949193909285163314806122f0575b156122aa5761203a8161497a565b9061204481613f9b565b50805161205081610989565b61205981610989565b61216d57609b5461208090612074906001600160a01b031681565b6001600160a01b031690565b85519091906060906001600160a01b031691015160208101519093906001600160a01b0316935199833b1561216957906120d08692519b8c9687958694635243975360e01b8652600486016125e8565b03925af192831561216457612146956121419461214b575b505b612101826000526035602052600019604060002055565b9151600192166001600160a01b0316907f0ac8bb53fac566d7afc05d8b4df11d7690a7b27bdc40b54e4060f9b21fb849bd600080a35b6118ef8388611f21565b611e9b565b611fd4565b8061215861215e92610722565b806101ec565b386120e8565b6125dc565b8580fd5b6001819c9b9a9998929496959c5161218481610989565b61218d81610989565b146121a9575b50505050966121419161214694959697986120ea565b6060810151820151939b949593612221906121eb906001600160601b03166121db876000526035602052604060002090565b54906001600160601b0316611f4e565b61221c610441610441608061220d612074612074609b5460018060a01b031690565b9601516001600160801b031690565b6129a2565b85516001600160a01b031692823b156122a65751630160928b60e31b8152600481019d909d5260248d01526001600160a01b039190911660448c015298999798969795968690606490829084905af1928315612164576121469561214194612293575b81939a99989796839550612193565b806121586122a092610722565b38612284565b8480fd5b612141945061214696919350916122e86122dd60c06000805160206159ba8339815191529501516001600160401b031690565b9251928392836125c3565b0390a1612137565b50612305836000526035602052604060002090565b546060820151880151612320906001600160601b0316610466565b1161202c565b9190811015611ed157610140020190565b90600182018092116114de57565b9190811015611ed157610240020190565b6040809180358452602081013561236c81610594565b6001600160a01b03166020850152013561238581611eea565b6001600160601b0316910152565b6001600160401b038116036101e757565b35906105cb82612393565b80356123ba816105a5565b6123c381610989565b825260208101356123d3816105a5565b6123dc81610989565b602083015260408101356123ef81610594565b6001600160a01b0316604083015261240d6060808401908301612356565b60c081013561241b816105af565b6001600160801b031660c083015260e081013561243781612393565b6001600160401b0380911660e08401526101008092013561245781612393565b16910152565b61248161024092959493612476836102608101986123af565b6101208301906123af565b0152565b3d156124b0573d90612496826107b8565b916124a4604051938461076b565b82523d6000602084013e565b606090565b6040906105ff939281528160208201520190610f56565b356105ff81610594565b908160209103126101e757516105ff816105af565b356105ff81612393565b809291039161012083126101e7576040519061251082610707565b60608294823561251f816105a5565b8452602083013561252f816105a5565b6020850152604083013561254281610594565b6040850152605f1901126101e7576125be61010060c092604051612565816106e7565b60608201358152608082013561257a81610594565b602082015260a082013561258d81611eea565b604082015260608601526125a28482016105c0565b60808601526125b360e082016123a4565b60a0860152016123a4565b910152565b9081526001600160401b03909116602082015260400190565b6040513d6000823e3d90fd5b9081526001600160a01b03918216602082015291166040820152606081019190915260800190565b93919261262e60c0949796929760e087019887526020870190612356565b6001600160801b031660808501526001600160401b0391821660a085015216910152565b90919060408101600080612665836124cc565b6001600160a01b0392908316331480612978575b8061295a575b8061291c575b806128f4575b156128b057506126a361269e36866124f5565b61497a565b956126ad85611ed6565b6126b681610989565b6127f6575060016001600160601b036126d160a08701611efb565b16036127ef57609b546126ee90612074906001600160a01b031681565b906126f8846124cc565b612704608087016124cc565b92803b156127eb57606083886127348c604051988997889687956305f91a0f60e41b8752013592600486016125e8565b03925af18015612164576127d8575b505b61275761275236856124f5565b613d49565b5060008051602061593a83398151915261277084611ed6565b9161278661278060208701611ed6565b946124cc565b6127d361279560c08801611ee0565b6127a160e089016124eb565b6127ae6101008a016124eb565b916127b888610989565b6127c189610989565b6060604051968796169a018c86612610565b0390a4565b806121586127e592610722565b38612743565b8280fd5b9450505050565b90600161280286611ed6565b61280b81610989565b14612818575b5050612745565b6001600160601b0361282c60a08701611efb565b16156128a857609b5461284990612074906001600160a01b031681565b803b156128a4576040516373d1ca7d60e11b8152600481018990526001600160801b039390931660248401819052839160449183915af1801561216457612891575b80612811565b8061215861289e92610722565b3861288b565b5080fd5b955050505050565b95505050506000805160206159ba833981519152906128df6101006128d861269e36856124f5565b92016124eb565b906128ef604051928392836125c3565b0390a1565b5061291561290561269e36886124f5565b6000526035602052604060002090565b541561268b565b5060e0850161292a816124eb565b426001600160401b0391821611918215612946575b5050612685565b6129519192506124eb565b1615388061293f565b506001600160401b0361297061010087016124eb565b16151561267f565b506001600160801b0361299061044160c08801611ee0565b161515612679565b516105ff81610989565b818102929181159184041417156114de57565b93909594919260809360a0860197865260208601526040850152606084015260018060a01b0316910152565b916000916000936129ff612007826000526000602052604060002090565b94602086015190612a0f82610989565b6020840191612a1d83611ed6565b90612a2782610989565b612a3081610989565b14801590612f6e575b8015612f3e575b8015612f0a575b8015612ef7575b8015612ebf575b612e8457604080850193612a68856124cc565b6001600160a01b03939084163314801590612e67575b8015612e29575b8015612e10575b612ddf57612aa4826000526035602052604060002090565b5499612aaf81613f9b565b50612ac7836000526035602052600019604060002055565b838101805190919086166001600160a01b0316847f0ac8bb53fac566d7afc05d8b4df11d7690a7b27bdc40b54e4060f9b21fb849bd8580a3612b0c612752368b6124f5565b9b8151612b1881610989565b612b2181610989565b612c0d575050609b54919291612b429150612074906001600160a01b031681565b90813b156127eb57835163650f14c560e11b81526004810191909152602481018b9052939291908490604490829084905af19283156121645760008051602061593a83398151915293612bfa575b505b6127d3612bb0612baa612ba489611ed6565b96611ed6565b966124cc565b91612bbd60c08901611ee0565b612bc960e08a016124eb565b906060612bd96101008c016124eb565b93612be38a610989565b612bec8b610989565b51968796169a018d86612610565b80612158612c0792610722565b38612b90565b60018251612c1a81610989565b612c2381610989565b14612c44575b50505050509060008051602061593a83398151915291612b92565b90612c85612c9492612c8061046689989f9a996060612c6f610441608089015160018060801b031690565b96015101516001600160601b031690565b611f4e565b906001600160801b03166129a2565b90612cba6104418a61047261046660a0612cb361044160c08601611ee0565b9301611efb565b9582871115612d615750612cce8287611f4e565b9a612cf7612ce9612074612074609b5460018060a01b031690565b92516001600160a01b031690565b823b156122a6578d91612d218e9288519a8b97889687956305f852cf60e51b8752600487016129b5565b03925af19283156121645760008051602061593a83398151915293612d4e575b505b909138808080612c29565b80612158612d5b92610722565b38612d41565b9a612d7c612ce9612074612074609b5460018060a01b031690565b823b156122a6578d91612da6869288519a8b97889687956305f852cf60e51b8752600487016129b5565b03925af19283156121645760008051602061593a83398151915293612dcc575b50612d43565b80612158612dd992610722565b38612dc6565b98509350936000805160206159ba833981519152959650612e0992506122dd9150610100016124eb565b0390a18190565b50612e2161290561269e368a6124f5565b541515612a8c565b5060e08701612e37816124eb565b426001600160401b03918216109182612e52575b5050612a85565b612e5d9192506124eb565b1615153880612e4b565b506001600160401b03612e7d61010089016124eb565b1615612a7e565b956000805160206159ba833981519152949550612eaf92935060c0915001516001600160401b031690565b90612e09604051928392836125c3565b50612ed4836000526035602052604060002090565b54606088015160400151612ef0906001600160601b0316610466565b1115612a55565b5060608701515160608501351415612a4e565b506060870151602001516001600160a01b0316612f2c612074608087016124cc565b6001600160a01b039091161415612a47565b5060408701516001600160a01b0316612f5c612074604087016124cc565b6001600160a01b039091161415612a40565b508651612f7a81610989565b612f8385611ed6565b90612f8d82610989565b612f9681610989565b1415612a39565b15612fa457565b60405162461bcd60e51b815260206004820152601a60248201527948443a20627579207072696365203c2066696c6c20707269636560301b6044820152606490fd5b9081526001600160801b0390911660208201526001600160a01b03909116604082015260600190565b1561301657565b60405162461bcd60e51b815260206004820152601660248201527548443a2076616c7565203c2066696c6c20707269636560501b6044820152606490fd5b919261307961024092959461306e856102608101986123af565b6101208501906123af565b6001600160801b0316910152565b6001600160801b0391821690821603919082116114de57565b156130a757565b60405162461bcd60e51b815260206004820152600d60248201526c048443a2076616c7565203e203609c1b6044820152606490fd5b6001600160a01b0391821681529116602082015260a0810192916105cb9160400190612356565b92919060009360009161311961269e36846124f5565b9161312761269e36846124f5565b94613147868561313736866124f5565b61314136886124f5565b90613830565b6040958683019161315a612074846124cc565b33036133d45761316a90156130a0565b60008581526020819052604090206001600160a01b0390613196905b5460101c6001600160a01b031690565b16151580916131ae826131a936886124f5565b6147d1565b6131cd6131c8612007836000526000602052604060002090565b6146e0565b6131dc61044160c08801611ee0565b916133a9575b613208816132036131fd826000526035602052604060002090565b54612337565b614836565b80876000805160206159da8339815191528b5180613228878c8c84613054565b0390a3609b5461324290612074906001600160a01b031681565b90813b156133a55761327089939284928c51958680948193630160928b60e31b835288309160048501612fe6565b03925af1918215612164576132b892613392575b506068546132b290610441906132a3906001600160801b0316846139b5565b6132ac876124cc565b93613087565b90614a6b565b1561333c5750609b546132e29086906132db90612074906001600160a01b031681565b93016124cc565b926132ef608083016124cc565b95833b15612169579161331e86926060945198899788968795635243975360e01b8752013592600486016125e8565b03925af180156121645761332f5750565b806121586105cb92610722565b919492506133658361335e612780612074612074609b5460018060a01b031690565b96016124cc565b92823b156122a65751632f58639d60e11b815294859384928692849261331e9260600191600485016130dc565b8061215861339f92610722565b38613284565b8880fd5b6133bb6133b636876124f5565b613f9b565b506133cf8761320361046660a08901611efb565b6131e2565b968481969597999a5093929301926133ee612074856124cc565b330361367d5782908560018060a01b03613415613186866000526000602052604060002090565b1615938415996134356131c8612007856000526000602052604060002090565b6134438b6131a936846124f5565b61345261044160c08301611ee0565b9b61346261044160c08801611ee0565b96156135ac576134e7956000805160206159da833981519152929091613493906001600160801b038a16111561300f565b6134a68561320361046660a08601611efb565b6134b5888d5193849384613054565b0390a36068546132b290610441906134e0906134da906001600160801b0316876139b5565b936124cc565b9285613087565b6001600160801b038181169088161161358c575b50609b5461351d9061351790612074906001600160a01b031681565b926124cc565b9261352a608083016124cc565b94833b156133a55751635243975360e01b815294889486949385938793859361355b936060013592600486016125e8565b03925af1801561216457613579575b5015613574575090565b905090565b8061215861358692610722565b3861356a565b6135a6906132b261044161359f866124cc565b928a613087565b386134fb565b5092935090506135ca6001600160801b03858116908c161015612f9d565b609b546135e190612074906001600160a01b031681565b803b1561367957908b613610819594938d8c51978880948193630160928b60e31b835230908960048501612fe6565b03925af1938415612164578689936000805160206159da833981519152926134e797613666575b506136456133b636836124f5565b50613661846132036131fd826000526035602052604060002090565b613493565b8061215861367392610722565b38613637565b8b80fd5b855162461bcd60e51b815260206004820152601260248201527112110e881cd95b99195c881a5b9d985b1a5960721b6044820152606490fd5b156136bd57565b60405162461bcd60e51b815260206004820152600e60248201526d24221d1039b0b6b29037b93232b960911b6044820152606490fd5b156136fa57565b60405162461bcd60e51b8152602060048201526011602482015270090887440e6d2c8ca40dad2e6dac2e8c6d607b1b6044820152606490fd5b1561373a57565b60405162461bcd60e51b8152602060048201526011602482015270090887440d6d2dcc840dad2e6dac2e8c6d607b1b6044820152606490fd5b1561377a57565b60405162461bcd60e51b815260206004820152600e60248201526d24221d1039b0b6b29036b0b5b2b960911b6044820152606490fd5b156137b757565b60405162461bcd60e51b8152602060048201526012602482015271090887440c2e6e6cae840dad2e6dac2e8c6d60731b6044820152606490fd5b156137f857565b60405162461bcd60e51b815260206004820152601060248201526f12110e881bdc99195c8818db1bdcd95960821b6044820152606490fd5b613909610466604060606138f76105cb989761384e898214156136b6565b865161385981610989565b61386281610989565b1580613993575b613872906136f3565b6138946001602089015161388581610989565b61388e81610989565b14613733565b86840151612905906001600160a01b0316898601516138d1906138bf906001600160a01b0316612074565b6001600160a01b039283161415613773565b60208a01516138df81610989565b6138e881610989565b15908115613941575b506137b0565b5494015101516001600160601b031690565b119182613918575b50506137f1565b613939919250604060606138f7610466936000526035602052604060002090565b113880613911565b8986015160208101519092506001600160a01b03168b8701516020810151909290613974906001600160a01b0316612074565b9116149182613986575b5050386138f1565b519051149050388061397e565b50613872600189516139a481610989565b6139ad81610989565b149050613869565b612710916001600160801b03916139cc9190611f05565b160490565b6139d9611983565b6001600160a01b03168015610cdf57609b80546001600160a01b031916919091179055565b613a0782610989565b600060018303613a3b57506001600160a01b031660009081526001602052604090206105ff91613a3691610dde565b614b08565b6001600160a01b0390911681526001602052604090206105ff91613a5e91610dde565b614ab6565b6001600160801b03838116613aa75750909150613a7f82610989565b60018203613a97576105ff91610ae7613a3692610dc4565b6105ff91610ae7613a5e92610dc4565b613ab083610989565b60016000848203613ad4575050506105ff9291610ae7613acf92610dc4565b614b5a565b9193613af2919360018060a01b031683528360205260408320610dde565b9284915082840194613b27613b1985613b0b848a61162c565b01546001600160801b031690565b6001600160801b0316151590565b15613b4557505090613b0b613b3f926105ff9561162c565b906150c2565b8395939450613b5a613b67918594939461162c565b546001600160801b031690565b945b613b75575b5050505090565b81859394951615159081613bac575b5015613ba557908391613b9a613b5a838661162c565b949392919091613b69565b8193613b6e565b905081613bc361044161044188613b0b888a61162c565b91161438613b84565b80546001600160801b0319166001600160801b03909216919091179055565b906020600491613d4281518051613c0181610989565b613c0a81610989565b60ff875491168060ff19831617885561ff0086840151613c2981610989565b613c3281610989565b60081b169161ffff191617178655613c7a613c56604083015160018060a01b031690565b875462010000600160b01b03191660109190911b62010000600160b01b0316178755565b606081015180516001880155602081015160409091015160a01b6001600160a01b0319166001600160a01b039190911617600287015560808101516003870191613d229160c09190613cd5906001600160801b031685613bcc565b613d14613cec60a08301516001600160401b031690565b855467ffffffffffffffff60801b191660809190911b67ffffffffffffffff60801b16178555565b01516001600160401b031690565b81546001600160c01b031660c09190911b6001600160c01b031916179055565b0151910155565b90613d538261497a565b9160018060a01b03613d72613186856000526000602052604060002090565b16613f5d5760608101805160209081015185939290613dae90613da2906001600160a01b0316610dc4565b610dc4565b845190610ae782610989565b608084018051909190613dd290613dce906001600160801b031683614c2d565b1590565b613f41575b5081518301518390613e1c90613e0a90613dfe906001600160a01b0316610daa565b610daa565b875190610ae782610989565b83516001600160801b03165b9061162c565b92835415613e9b575b505050600181019081548015600014613e6c57509360009291816105cb965555613e4d61078c565b928352820152613e67846000526000602052604060002090565b613beb565b6000915092856004613e8e613e98969795976000526000602052604060002090565b0155613e4d61078c565b55565b613f399350613f1f613df9613e1693613f2b93613f10613eb961078c565b6000808252848201528251840151613eff90613eef908e90613ee3906001600160a01b0316610daa565b905190610ae782610989565b8a516001600160801b0316613e16565b906020600191805184550151910155565b5101516001600160a01b031690565b865190610ae782610989565b91516001600160801b031690565b388281613e25565b8151613f5791906001600160801b031690614d07565b38613dd7565b604051630c56ca8160e31b815260048101849052602490fd5b90604051613f8381610735565b602060048294613f9281611519565b84520154910152565b9060609081830192602091613fcc613fc0613df98588510160018060a01b0390511690565b835190610ae782610989565b608083018051909591613fe7916001600160801b0316613e16565b9586549260009687945b80151580614318575b15614226578781614019610b4a8d946000526000602052604060002090565b9a8b9889516040858d61404a6120748461403b8188015160018060a01b031690565b9301516001600160a01b031690565b6001600160a01b039091161492836141ef575b50508c8c836141ba575b8361416a575b505081614159575b8a8c83614122575b505050600014614113575091816140e693826140c8949b838854146000146140f457015186555b6001809601828154146140ec575b50509b0151976000526000602052604060002090565b60046000918281558260018201558260028201558260038201550155565b94613ff1565b5538806140b2565b0151600461410c836000526000602052604060002090565b01556140a4565b985050909150980151946140e6565b5101518101518a51909101516001600160601b0391821692506141459116610466565b6001600160601b0390911614388a8c61407d565b8b518b0151518a5151149150614075565b6001600160401b03919293506141a36141af9161419460c0809251016001600160401b0390511690565b9401516001600160401b031690565b6001600160401b031690565b911614908c8c61406d565b6001600160401b03919293506141a36141e49161419460a0809251016001600160401b0390511690565b911614908c8c614067565b01519091506141fd81610989565b858d01519061420b82610989565b61421482610989565b61421d81610989565b1490853861405d565b989295949197509592506000146142d5575415614244575b50505050565b613d9d8184613f1061428b61427b61426f613df9613ee3986142979b510160018060a01b0390511690565b885190610ae782610989565b89516001600160801b0316613e16565b60016000918281550155565b81516142ac906001600160801b031682614c2d565b6142b8575b808061423e565b90516142ce91906001600160801b031690614e3e565b38806142b1565b60405162461bcd60e51b815260206004820152601b60248201527a21b0b73737ba103932b6b7bb329036b4b9b9b4b7339037b93232b960291b6044820152606490fd5b508515613ffa565b6040519061432d82610707565b8160c060009182815282602082015282604082015260405161434e816106e7565b83815283602082015283604082015260608201528260808201528260a08201520152565b9061437c82611a30565b614389604051918261076b565b828152809261439a601f1991611a30565b019060005b8281106143ab57505050565b6020906143b6614320565b8282850101520161439f565b906040516143cf81610735565b602060018294805484520154910152565b601f81116143ec575050565b60009060008051602061595a833981519152825260208220906020601f850160051c83019410614437575b601f0160051c01915b82811061442c57505050565b818155600101614420565b9092508290614417565b601f811161444d575050565b60009060008051602061599a833981519152825260208220906020601f850160051c83019410614498575b601f0160051c01915b82811061448d57505050565b818155600101614481565b9092508290614478565b9081516001600160401b0381116107025760008051602061599a833981519152906144d6816144d18454611a6f565b614441565b602080601f8311600114614512575081929394600092614507575b50508160011b916000199060031b1c1916179055565b0151905038806144f1565b60008051602061599a833981519152600052601f198316959091907f5f9ce34815f8e11431c7bb75a8e6886a91478f7ffc1dbb0a98dc240fddd76b75926000905b88821061458b57505083600195969710614572575b505050811b019055565b015160001960f88460031b161c19169055388080614568565b80600185968294968601518155019501930190614553565b156145aa57565b60405162461bcd60e51b815260206004820152600f60248201526e27ab309d1036b4b9b99036b0b5b2b960891b6044820152606490fd5b156145e857565b60405162461bcd60e51b815260206004820152600c60248201526b13d5984e88195e1c1a5c995960a21b6044820152606490fd5b1561462357565b60405162461bcd60e51b815260206004820152600e60248201526d13d5984e881e995c9bc81cd85b1d60921b6044820152606490fd5b1561466057565b60405162461bcd60e51b815260206004820152600f60248201526e4f56613a207a65726f20707269636560881b6044820152606490fd5b1561469e57565b60405162461bcd60e51b815260206004820152601a60248201527913d5984e881d5b9cdd5c1c1bdc9d1959081b999d08185cdcd95d60321b6044820152606490fd5b60408101516146fd906001600160a01b039081165b1615156145a3565b6147486001600160401b036147318161472060a08601516001600160401b031690565b1680159081156147c7575b506145e1565b60c08301516001600160401b03165b16151561461c565b805161475381610989565b61475c81610989565b6147855760600151602001516105cb9061477e906001600160a01b0316612074565b1515614697565b6001815161479281610989565b61479b81610989565b146147a35750565b608001516105cb906001600160801b03906147bf908216610441565b161515614659565b905042103861472b565b60408101519091906147ed906001600160a01b039081166146f5565b15614812575b6147486001600160401b0361474060c08401516001600160401b031690565b6148316001600160401b0361472060a08401516001600160401b031690565b6147f3565b906000198214614850576000526035602052604060002055565b60405162461bcd60e51b815260206004820152600d60248201526c13d5984e8818d85b98d95b1959609a1b6044820152606490fd5b61488d611e10565b614895611e10565b6001600160801b03166103e88111610eaa57606880546001600160801b031916821790557f0b52884d4590055c8791518c34458834f75feed662340ef0b5af2898e7a9be9f600080a2565b959492909160769794927f7e112775c49cc2f5d597cc604eac1616afa66ee95cc7c4d46a97ca90b539ca33885261491681610989565b60f81b602088015261492781610989565b60f81b602187015260601b6001600160601b0319166022860152603685015260801b6001600160801b031916605684015260c091821b6001600160c01b03199081166066850152911b16606e8201520190565b80519061498682610989565b614a65602082015161499781610989565b6118b760018060a01b03938460408201511694606082015180519160208201511690604060018060601b03910151166040519160208301937f631e462bf410c643f967c13284911d970aa0a06097a11e4a1a7ad9549175d78a855260408401526060830152608082015260808152614a0e81610750565b5190206080820151909190614a2b906001600160801b0316610441565b614a5360c0614a4460a08501516001600160401b031690565b9301516001600160401b031690565b92604051978896602088019a8b6148e0565b51902090565b600080809381935af115614a7b57565b60405162461bcd60e51b815260206004820152601360248201527211551217d514905394d1915497d19052531151606a1b6044820152606490fd5b80546001600160801b03169081614acb575090565b9190915b60018101614add848261162c565b5490608091821c15614b03576001929394614af79161162c565b54901c92919050614acf565b505050565b80546001600160801b03908116929183614b20575050565b9190925b6001908184018583614b36848461162c565b01541615614b5257859291614b4a9161162c565b015416614b24565b509350509050565b906001600160801b0380821615614c1b57600180840191614b88613b19614b81868661162c565b5460801c90565b15614ba6575050614b816105ff9392614ba09261162c565b906150fa565b9094935082614bb9613b5a87958561162c565b955b614bc55750505050565b818692939594961615159081614bfc575b5015614bf457614be9613b5a828661162c565b949293919083614bbb565b93829361423e565b905082614c12610441610441614b81868a61162c565b91161438614bd6565b604051631b67230f60e31b8152600490fd5b6001600160801b03828116801515939084614c49575050505090565b8354831614935090918315614c65575b50505038808080613b6e565b614c7392935060010161162c565b54161515388080614c59565b80546001600160801b031660809290921b6001600160801b031916919091179055565b805460ff60801b191660809290921b60ff60801b16919091179055565b60ff60606105cb93614cfe6001808060801b0395614ce08785511682613bcc565b614cf08760208601511682614c7f565b019460408301511685613bcc565b01511690614ca2565b90916001600160801b0390818416908115614e2c57614d268585614c2d565b614e1a578354600095906001600160801b03165b848116968715614d80575080968410600014614d6857614b81614d60916001880161162c565b955b95614d3a565b614d7a90613b0b60019182890161162c565b95614d62565b9296505080936105cb9593614d93610799565b6001600160801b0385168152916000602084015260006040840152614dbb6060840160019052565b614dd26001870193614dcd868661162c565b614cbf565b84169081614ded57505050614de8915082613bcc565b615139565b1015614e0557614de892614e009161162c565b614c7f565b614e14614de89360019261162c565b01613bcc565b604051638caa2ccf60e01b8152600490fd5b604051631866497960e01b8152600490fd5b6001600160801b03919082821680156150b057614e5e613dce8484614c2d565b61509e5760019384830193614e86614e79614b81838861162c565b6001600160801b03161590565b8015615087575b1561502f57916105cb9593918361428b9694955b614eb1613b19614b81898961162c565b1561501b57614ec3614b81888861162c565b935b614ed2613b5a898961162c565b614ee581614ee0888b61162c565b613bcc565b8583898388161561500e57610441610441614b8186614f039461162c565b8b881603614ffc5750614e00614f19928a61162c565b8160ff614f3582614f2a8c8c61162c565b015460801c60ff1690565b16141593881603614f5f575b5050614f4f575b505061162c565b614f58916155d6565b3880614f48565b95819296614f71614ff4938388615562565b614f8b614f81614b81868a61162c565b614e00848a61162c565b614fa582614ee0614f9f614b81838c61162c565b8a61162c565b614fc1614fb682613b0b878b61162c565b82614e14858b61162c565b614fd682614ee0614f9f84613b0b848d61162c565b614fee614fe782614f2a878b61162c565b928861162c565b01614ca2565b933880614f41565b614e14615009938b61162c565b614f19565b5050615009915087613bcc565b61502981613b0b898961162c565b93614ec5565b8561503e81613b0b848961162c565b965b615057575b9161428b9593916105cb979593614ea1565b95615068613b19614b81838961162c565b156150815761507b614b8188928861162c565b96615040565b95615045565b50615099614e7987613b0b848961162c565b614e8d565b6040516326549d1560e11b8152600490fd5b60405163f482157960e01b8152600490fd5b600181016150d0838261162c565b5490608091821c156150f457600192936150e99161162c565b54901c9190506150c2565b50505090565b905b6001600160801b03906001908382018383615117848461162c565b0154161561513157906151299161162c565b0154166150fc565b509250505090565b80546001600160801b0392808416916151559061044190861681565b82141580615387575b156153665760019384840191615177613b5a828561162c565b93615197610441610441614b81615191613b5a8a8a61162c565b8861162c565b858416036152ae57506151ba86613b0b6151b4613b5a888861162c565b8661162c565b918660ff6151cc82614f2a878961162c565b160361523b57505090610aec8561520b816151f787966151b46152359a9b6151f7613b5a9b8a61162c565b01805460ff60801b1916600160811b179055565b61522161521b613b5a868661162c565b8461162c565b01805460ff60801b1916600160801b179055565b90615139565b909593915061525461044161044186613b0b868861162c565b9086161461528e575b50613b5a614de89282610aec615279613b5a896152889761162c565b9261520b816151f7868661162c565b82615485565b9350613b5a614de892615288926152a587876153aa565b9250925061525d565b91506152c9614b816152c3613b5a878761162c565b8561162c565b918660ff6152db82614f2a878961162c565b160361530657505090610aec8561520b816151f787966151b46152359a9b6151f7613b5a9b8a61162c565b909593915061531e610441610441614b81858761162c565b14615346575b50613b5a614de89282610aec615279613b5a896153409761162c565b826153aa565b9350613b5a614de8926153409261535d8787615485565b92509250615324565b505080546105cb92506001916151f7916001600160801b031690830161162c565b50600160ff6153a382614f2a818801613e16613b5a888361162c565b161461515e565b614ee06105cb92600183016153c46001613b0b848461162c565b93846153d3613b5a858561162c565b916153e1614b81838661162c565b6153f1816001614e14898961162c565b6001600160801b039086818316615471575b505061541384614ee0858861162c565b83811661543357506154259250613bcc565b610aec82614e00868461162c565b9050615448610441610441614b81868861162c565b9085160361546257614e0061545d928461162c565b615425565b6001614e1461545d938561162c565b614ee061547e928861162c565b3886615403565b614ee06105cb926001830161549d614b81838361162c565b93846154ac613b5a858561162c565b916154bc6001613b0b848761162c565b6154ca81614e00888861162c565b6001600160801b03908681831661554e575b50506154ec84614ee0858861162c565b83811661550e57506154fe9250613bcc565b610aec826001614e14878561162c565b90506155256104416104416001613b0b878961162c565b90851603615541576001614e1461553c938561162c565b6154fe565b614e0061553c928461162c565b614ee061555b928861162c565b38866154dc565b6001600160801b039260018201908461557b828461162c565b54169461558c86614ee0878661162c565b8561559e575050506105cb9250613bcc565b909192506155ac858461162c565b5460801c9116146000146155c7576105cb92614e009161162c565b614e146105cb9360019261162c565b905b81546001600160801b03828116916155f291610441911681565b8114158061591c575b1561590a576001615612613b5a828601948561162c565b91615626610441610441614b81868861162c565b036157a75761563981613b0b848661162c565b928160ff61564b82614f2a888661162c565b161461576c575b8161567061566a82614f2a6151b4614b818a8861162c565b60ff1690565b14158061574b575b156156935761568b92936152219161162c565b905b906155d8565b906151f7828583806156b961566a82614f2a61519182613b0b6156f09f6153409e61162c565b03615702575b613b0b613e16926156e26156d784614f2a8c8961162c565b84614fee848961162c565b61521b836151f78b8861162c565b80546001600160801b03165b9061568d565b9061571a61572e926151f76151b4614b81858861162c565b61572885615221838661162c565b88615485565b613e1683613b0b61574382613b0b8a8761162c565b9250506156bf565b508161576561566a82614f2a6151b482613b0b8b8961162c565b1415615678565b92816151f761577b928661162c565b61578981615221848661162c565b61579382856153aa565b6157a181613b0b848661162c565b92615652565b6157b4614b81838561162c565b928160ff6157c682614f2a888661162c565b16146158d0575b816157e661566a82614f2a6151b482613b0b8b8961162c565b1415806158b0575b15615801576156fc92936152219161162c565b906151f782858361582b61566a82614f2a615825614b816156f09d6152889c61162c565b8761162c565b03615868575b614b81613e169161585461584987614f2a8b8861162c565b87614fee848861162c565b615862866151f78a8761162c565b8361162c565b80615881856151f76151b482613b0b615895978961162c565b61588f85615221838661162c565b886153aa565b613e16614b816158a8614b81888561162c565b915050615831565b50816158c961566a82614f2a6151b4614b818a8861162c565b14156157ee565b92816151f76158df928661162c565b6158ed81615221848661162c565b6158f78285615485565b615904614b81838561162c565b926157cd565b506151f7600191826105cb940161162c565b50600160ff61593182614f2a8682890161162c565b1614156155fb56fefc37f2ff950f95913eb7182357ba3c14df60ef354bc7d6ab1ba2815f249fffe6a16a46d94261c7517cc8ff89f61c0ce93598e3c849801011dee649a6a557d1029016d09d72d40fdae2fd8ceac6b6234c7706214fd39c1cd1e609a0528c199300a16a46d94261c7517cc8ff89f61c0ce93598e3c849801011dee649a6a557d10343d1f368251ebe03c021962d50212d072e7ccee5c8ad3f541d93d0dc43bbd420f629aecab94607bc43ce4aebd564bf6e61c7327226a797b002de724b9944b20ecd5ed15c6e187e77e9aee88184c21f4f2182ab5827cb3b7e07fbedcd63f033009b779b17422d0df92223018b32b4d1fa46e071723d6817e2486d003becc55f00f0c57e16840df040f15088dc2f81fe391c3923bec73e23a9662efc9c229c6a00a26469706673582212208bc43529ab467c643955149c4eac37b7f669fadb001b6149b9ace929ccfd007264736f6c63430008140033",
  "linkReferences": {},
  "deployedLinkReferences": {}
}