{
  "_format": "hh-sol-artifact-1",
  "contractName": "ProtocolManagerV2Test",
  "sourceName": "contracts/test/ProtocolManagerV2Test.sol",
  "abi": [
    {
      "inputs": [],
      "name": "InvalidInitialization",
      "type": "error"
    },
    {
      "inputs": [],
      "name": "NotInitializing",
      "type": "error"
    },
    {
      "inputs": [
        {
          "internalType": "address",
          "name": "owner",
          "type": "address"
        }
      ],
      "name": "OwnableInvalidOwner",
      "type": "error"
    },
    {
      "inputs": [
        {
          "internalType": "address",
          "name": "account",
          "type": "address"
        }
      ],
      "name": "OwnableUnauthorizedAccount",
      "type": "error"
    },
    {
      "anonymous": false,
      "inputs": [
        {
          "indexed": false,
          "internalType": "uint64",
          "name": "version",
          "type": "uint64"
        }
      ],
      "name": "Initialized",
      "type": "event"
    },
    {
      "anonymous": false,
      "inputs": [
        {
          "indexed": true,
          "internalType": "uint128",
          "name": "newProtocolShare",
          "type": "uint128"
        }
      ],
      "name": "LogUpdatedProtocolShare",
      "type": "event"
    },
    {
      "anonymous": false,
      "inputs": [
        {
          "indexed": true,
          "internalType": "address",
          "name": "previousOwner",
          "type": "address"
        },
        {
          "indexed": true,
          "internalType": "address",
          "name": "newOwner",
          "type": "address"
        }
      ],
      "name": "OwnershipTransferred",
      "type": "event"
    },
    {
      "inputs": [
        {
          "internalType": "uint128",
          "name": "newProtocolFee",
          "type": "uint128"
        }
      ],
      "name": "initialize",
      "outputs": [],
      "stateMutability": "nonpayable",
      "type": "function"
    },
    {
      "inputs": [],
      "name": "owner",
      "outputs": [
        {
          "internalType": "address",
          "name": "",
          "type": "address"
        }
      ],
      "stateMutability": "view",
      "type": "function"
    },
    {
      "inputs": [],
      "name": "protocolShare",
      "outputs": [
        {
          "internalType": "uint128",
          "name": "",
          "type": "uint128"
        }
      ],
      "stateMutability": "view",
      "type": "function"
    },
    {
      "inputs": [],
      "name": "renounceOwnership",
      "outputs": [],
      "stateMutability": "nonpayable",
      "type": "function"
    },
    {
      "inputs": [
        {
          "internalType": "uint128",
          "name": "newProtocolShare",
          "type": "uint128"
        }
      ],
      "name": "setProtocolShare",
      "outputs": [],
      "stateMutability": "nonpayable",
      "type": "function"
    },
    {
      "inputs": [
        {
          "internalType": "address",
          "name": "newOwner",
          "type": "address"
        }
      ],
      "name": "transferOwnership",
      "outputs": [],
      "stateMutability": "nonpayable",
      "type": "function"
    }
  ],
  "bytecode": "0x608080604052346100165761050f908161001c8239f35b600080fdfe608060408181526004908136101561001657600080fd5b600092833560e01c9081631103f3151461041b5750806356db9ef114610266578063715018a6146101f9578063813e7c2a146101405780638da5cb5b146101065763f2fde38b1461006657600080fd5b34610102576020366003190112610102576001600160a01b038235818116939192908490036100fe5761009761043f565b83156100e85750506000805160206104ba83398151915280546001600160a01b031981168417909155167f8be0079c531659141344cd1fd0a4f28419497f9722a3daafe3b4186f6b6457e08380a380f35b51631e4fbdf760e01b8152908101849052602490fd5b8480fd5b8280fd5b83823461013c578160031936011261013c576000805160206104ba8339815191525490516001600160a01b039091168152602090f35b5080fd5b5090346101025760203660031901126101025780356001600160801b03811692908390036101f55761017061043f565b6103e883116101b257505081546001600160801b031916811782557f0b52884d4590055c8791518c34458834f75feed662340ef0b5af2898e7a9be9f8280a280f35b906020606492519162461bcd60e51b8352820152601d60248201527f504d3a20657863656564206d61782070726f746f636f6c2073686172650000006044820152fd5b8380fd5b833461026357806003193601126102635761021261043f565b6000805160206104ba83398151915280546001600160a01b0319811690915581906001600160a01b03167f8be0079c531659141344cd1fd0a4f28419497f9722a3daafe3b4186f6b6457e08280a380f35b80fd5b50346101025760203660031901126101025781356001600160801b03811692908390036101f5577ff0c57e16840df040f15088dc2f81fe391c3923bec73e23a9662efc9c229c6a009182549160ff83831c16159267ffffffffffffffff811680159081610413575b6001149081610409575b159081610400575b506103f15767ffffffffffffffff1981166001178555836103d2575b50610305610478565b61030d610478565b6103e88511610390575084546001600160801b0319168417855551927f0b52884d4590055c8791518c34458834f75feed662340ef0b5af2898e7a9be9f8580a2610355578280f35b805460ff60401b19169055600181527fc7f505b2f371ae2175ee4913f4499e1f2633a7b5936321eed1cdaeb6115181d290602090a138808280f35b6020606492519162461bcd60e51b8352820152601d60248201527f504d3a20657863656564206d61782070726f746f636f6c2073686172650000006044820152fd5b68ffffffffffffffffff191668010000000000000001178455386102fc565b50905163f92ee8a960e01b8152fd5b905015386102e0565b303b1591506102d8565b8591506102ce565b84903461013c578160031936011261013c5790546001600160801b03168152602090f35b6000805160206104ba833981519152546001600160a01b0316330361046057565b60405163118cdaa760e01b8152336004820152602490fd5b60ff7ff0c57e16840df040f15088dc2f81fe391c3923bec73e23a9662efc9c229c6a005460401c16156104a757565b604051631afcd79f60e31b8152600490fdfe9016d09d72d40fdae2fd8ceac6b6234c7706214fd39c1cd1e609a0528c199300a2646970667358221220c25d09fb1240827be4ae4a395643d5d81b697721bc561ab316c39091465e26d664736f6c63430008140033",
  "linkReferences": {},
  "deployedLinkReferences": {}
}