{
  "_format": "hh-sol-artifact-1",
  "contractName": "ERC721A",
  "sourceName": "erc721a/contracts/ERC721A.sol",
  "abi": [
    {
      "inputs": [
        {
          "internalType": "string",
          "name": "name_",
          "type": "string"
        },
        {
          "internalType": "string",
          "name": "symbol_",
          "type": "string"
        }
      ],
      "stateMutability": "nonpayable",
      "type": "constructor"
    },
    {
      "inputs": [],
      "name": "ApprovalCallerNotOwnerNorApproved",
      "type": "error"
    },
    {
      "inputs": [],
      "name": "ApprovalQueryForNonexistentToken",
      "type": "error"
    },
    {
      "inputs": [],
      "name": "BalanceQueryForZeroAddress",
      "type": "error"
    },
    {
      "inputs": [],
      "name": "MintERC2309QuantityExceedsLimit",
      "type": "error"
    },
    {
      "inputs": [],
      "name": "MintToZeroAddress",
      "type": "error"
    },
    {
      "inputs": [],
      "name": "MintZeroQuantity",
      "type": "error"
    },
    {
      "inputs": [],
      "name": "OwnerQueryForNonexistentToken",
      "type": "error"
    },
    {
      "inputs": [],
      "name": "OwnershipNotInitializedForExtraData",
      "type": "error"
    },
    {
      "inputs": [],
      "name": "TransferCallerNotOwnerNorApproved",
      "type": "error"
    },
    {
      "inputs": [],
      "name": "TransferFromIncorrectOwner",
      "type": "error"
    },
    {
      "inputs": [],
      "name": "TransferToNonERC721ReceiverImplementer",
      "type": "error"
    },
    {
      "inputs": [],
      "name": "TransferToZeroAddress",
      "type": "error"
    },
    {
      "inputs": [],
      "name": "URIQueryForNonexistentToken",
      "type": "error"
    },
    {
      "anonymous": false,
      "inputs": [
        {
          "indexed": true,
          "internalType": "address",
          "name": "owner",
          "type": "address"
        },
        {
          "indexed": true,
          "internalType": "address",
          "name": "approved",
          "type": "address"
        },
        {
          "indexed": true,
          "internalType": "uint256",
          "name": "tokenId",
          "type": "uint256"
        }
      ],
      "name": "Approval",
      "type": "event"
    },
    {
      "anonymous": false,
      "inputs": [
        {
          "indexed": true,
          "internalType": "address",
          "name": "owner",
          "type": "address"
        },
        {
          "indexed": true,
          "internalType": "address",
          "name": "operator",
          "type": "address"
        },
        {
          "indexed": false,
          "internalType": "bool",
          "name": "approved",
          "type": "bool"
        }
      ],
      "name": "ApprovalForAll",
      "type": "event"
    },
    {
      "anonymous": false,
      "inputs": [
        {
          "indexed": true,
          "internalType": "uint256",
          "name": "fromTokenId",
          "type": "uint256"
        },
        {
          "indexed": false,
          "internalType": "uint256",
          "name": "toTokenId",
          "type": "uint256"
        },
        {
          "indexed": true,
          "internalType": "address",
          "name": "from",
          "type": "address"
        },
        {
          "indexed": true,
          "internalType": "address",
          "name": "to",
          "type": "address"
        }
      ],
      "name": "ConsecutiveTransfer",
      "type": "event"
    },
    {
      "anonymous": false,
      "inputs": [
        {
          "indexed": true,
          "internalType": "address",
          "name": "from",
          "type": "address"
        },
        {
          "indexed": true,
          "internalType": "address",
          "name": "to",
          "type": "address"
        },
        {
          "indexed": true,
          "internalType": "uint256",
          "name": "tokenId",
          "type": "uint256"
        }
      ],
      "name": "Transfer",
      "type": "event"
    },
    {
      "inputs": [
        {
          "internalType": "address",
          "name": "to",
          "type": "address"
        },
        {
          "internalType": "uint256",
          "name": "tokenId",
          "type": "uint256"
        }
      ],
      "name": "approve",
      "outputs": [],
      "stateMutability": "payable",
      "type": "function"
    },
    {
      "inputs": [
        {
          "internalType": "address",
          "name": "owner",
          "type": "address"
        }
      ],
      "name": "balanceOf",
      "outputs": [
        {
          "internalType": "uint256",
          "name": "",
          "type": "uint256"
        }
      ],
      "stateMutability": "view",
      "type": "function"
    },
    {
      "inputs": [
        {
          "internalType": "uint256",
          "name": "tokenId",
          "type": "uint256"
        }
      ],
      "name": "getApproved",
      "outputs": [
        {
          "internalType": "address",
          "name": "",
          "type": "address"
        }
      ],
      "stateMutability": "view",
      "type": "function"
    },
    {
      "inputs": [
        {
          "internalType": "address",
          "name": "owner",
          "type": "address"
        },
        {
          "internalType": "address",
          "name": "operator",
          "type": "address"
        }
      ],
      "name": "isApprovedForAll",
      "outputs": [
        {
          "internalType": "bool",
          "name": "",
          "type": "bool"
        }
      ],
      "stateMutability": "view",
      "type": "function"
    },
    {
      "inputs": [],
      "name": "name",
      "outputs": [
        {
          "internalType": "string",
          "name": "",
          "type": "string"
        }
      ],
      "stateMutability": "view",
      "type": "function"
    },
    {
      "inputs": [
        {
          "internalType": "uint256",
          "name": "tokenId",
          "type": "uint256"
        }
      ],
      "name": "ownerOf",
      "outputs": [
        {
          "internalType": "address",
          "name": "",
          "type": "address"
        }
      ],
      "stateMutability": "view",
      "type": "function"
    },
    {
      "inputs": [
        {
          "internalType": "address",
          "name": "from",
          "type": "address"
        },
        {
          "internalType": "address",
          "name": "to",
          "type": "address"
        },
        {
          "internalType": "uint256",
          "name": "tokenId",
          "type": "uint256"
        }
      ],
      "name": "safeTransferFrom",
      "outputs": [],
      "stateMutability": "payable",
      "type": "function"
    },
    {
      "inputs": [
        {
          "internalType": "address",
          "name": "from",
          "type": "address"
        },
        {
          "internalType": "address",
          "name": "to",
          "type": "address"
        },
        {
          "internalType": "uint256",
          "name": "tokenId",
          "type": "uint256"
        },
        {
          "internalType": "bytes",
          "name": "_data",
          "type": "bytes"
        }
      ],
      "name": "safeTransferFrom",
      "outputs": [],
      "stateMutability": "payable",
      "type": "function"
    },
    {
      "inputs": [
        {
          "internalType": "address",
          "name": "operator",
          "type": "address"
        },
        {
          "internalType": "bool",
          "name": "approved",
          "type": "bool"
        }
      ],
      "name": "setApprovalForAll",
      "outputs": [],
      "stateMutability": "nonpayable",
      "type": "function"
    },
    {
      "inputs": [
        {
          "internalType": "bytes4",
          "name": "interfaceId",
          "type": "bytes4"
        }
      ],
      "name": "supportsInterface",
      "outputs": [
        {
          "internalType": "bool",
          "name": "",
          "type": "bool"
        }
      ],
      "stateMutability": "view",
      "type": "function"
    },
    {
      "inputs": [],
      "name": "symbol",
      "outputs": [
        {
          "internalType": "string",
          "name": "",
          "type": "string"
        }
      ],
      "stateMutability": "view",
      "type": "function"
    },
    {
      "inputs": [
        {
          "internalType": "uint256",
          "name": "tokenId",
          "type": "uint256"
        }
      ],
      "name": "tokenURI",
      "outputs": [
        {
          "internalType": "string",
          "name": "",
          "type": "string"
        }
      ],
      "stateMutability": "view",
      "type": "function"
    },
    {
      "inputs": [],
      "name": "totalSupply",
      "outputs": [
        {
          "internalType": "uint256",
          "name": "",
          "type": "uint256"
        }
      ],
      "stateMutability": "view",
      "type": "function"
    },
    {
      "inputs": [
        {
          "internalType": "address",
          "name": "from",
          "type": "address"
        },
        {
          "internalType": "address",
          "name": "to",
          "type": "address"
        },
        {
          "internalType": "uint256",
          "name": "tokenId",
          "type": "uint256"
        }
      ],
      "name": "transferFrom",
      "outputs": [],
      "stateMutability": "payable",
      "type": "function"
    }
  ],
  "bytecode": "0x6080604052346200030f5762000fd8803803806200001d8162000314565b9283398101906040818303126200030f5780516001600160401b03908181116200030f57836200004f9184016200033a565b91602093848201518381116200030f576200006b92016200033a565b8251908282116200022157600254916001948584811c9416801562000304575b8785101462000200578190601f94858111620002ad575b508790858311600114620002435760009262000237575b5050600019600383901b1c191690851b176002555b8051928311620002215760039485548581811c9116801562000216575b828210146200020057838111620001b5575b50809284116001146200014b57509282939183926000946200013f575b50501b9160001990841b1c19161790555b60008055604051610c2b9081620003ad8239f35b0151925038806200011a565b919083601f1981168760005284600020946000905b888383106200019a575050501062000181575b505050811b0190556200012b565b015160001983861b60f8161c1916905538808062000173565b85870151885590960195948501948793509081019062000160565b86600052816000208480870160051c820192848810620001f6575b0160051c019086905b828110620001e9575050620000fd565b60008155018690620001d9565b92508192620001d0565b634e487b7160e01b600052602260045260246000fd5b90607f1690620000eb565b634e487b7160e01b600052604160045260246000fd5b015190503880620000b9565b90879350601f198316916002600052896000209260005b8b8282106200029657505084116200027c575b505050811b01600255620000ce565b015160001960f88460031b161c191690553880806200026d565b8385015186558b979095019493840193016200025a565b9091506002600052876000208580850160051c8201928a8610620002fa575b918991869594930160051c01915b828110620002ea575050620000a2565b60008155859450899101620002da565b92508192620002cc565b93607f16936200008b565b600080fd5b6040519190601f01601f191682016001600160401b038111838210176200022157604052565b919080601f840112156200030f5782516001600160401b038111620002215760209062000370601f8201601f1916830162000314565b928184528282870101116200030f5760005b8181106200039857508260009394955001015290565b85810183015184820184015282016200038256fe6080604052600436101561001257600080fd5b60003560e01c806301ffc9a7146100f757806306fdde03146100f2578063081812fc146100ed578063095ea7b3146100e857806318160ddd146100e357806323b872dd146100de57806342842e0e146100d95780636352211e146100d457806370a08231146100cf57806395d89b41146100ca578063a22cb465146100c5578063b88d4fde146100c0578063c87b56dd146100bb5763e985e9c5146100b657600080fd5b6107d2565b610769565b6106e6565b6105f2565b61052f565b6104d4565b6104a5565b610482565b61046e565b610416565b610361565b6102e1565b6101d5565b610113565b6001600160e01b031981160361010e57565b600080fd5b3461010e57602036600319011261010e576020600435610132816100fc565b63ffffffff60e01b166301ffc9a760e01b8114908115610170575b811561015f575b506040519015158152f35b635b5e139f60e01b14905038610154565b6380ac58cd60e01b8114915061014d565b919082519283825260005b8481106101ad575050826000602080949584010152601f8019910116010190565b60208183018101518483018201520161018c565b9060206101d2928181520190610181565b90565b3461010e576000806003193601126102de5760405190806002549060019180831c928082169283156102d4575b60209283861085146102c057858852602088019490811561029f5750600114610246575b61024287610236818903826106aa565b604051918291826101c1565b0390f35b600260005294509192917f405787fa12a823e0f2b7631cc41b3ba8828b3321ca811111fa75cd3aa3bb5ace5b83861061028e5750505091019050610236826102423880610226565b805485870152948201948101610272565b60ff191685525050505090151560051b019050610236826102423880610226565b634e487b7160e01b82526022600452602482fd5b93607f1693610202565b80fd5b3461010e57602036600319011261010e576004356102fe816108a9565b15610323576000526006602052602060018060a01b0360406000205416604051908152f35b6040516333d1c03960e21b8152600490fd5b600435906001600160a01b038216820361010e57565b602435906001600160a01b038216820361010e57565b604036600319011261010e57610375610335565b6024356001600160a01b038061038a8361083a565b16908133036103e5575b600083815260066020526040812080546001600160a01b0319166001600160a01b0387161790559316907f8c5be1e5ebec7d5bd14f71427d1e84f3dd0314c0f7b2291e5b200ac8c7c3b9258480a480f35b81600052600760205260ff6103fe336040600020610823565b5416610394576040516367d9dca160e11b8152600490fd5b3461010e57600036600319011261010e5760206000546001549003604051908152f35b606090600319011261010e576001600160a01b0390600435828116810361010e5791602435908116810361010e579060443590565b61048061047a36610439565b916108d2565b005b61048061048e36610439565b906040519261049c8461068a565b60008452610a92565b3461010e57602036600319011261010e5760206001600160a01b036104cb60043561083a565b16604051908152f35b3461010e57602036600319011261010e576001600160a01b036104f5610335565b16801561051d57600052600560205260206001600160401b0360406000205416604051908152f35b6040516323d3ad8160e21b8152600490fd5b3461010e576000806003193601126102de5760405190806003549060019180831c928082169283156105e8575b60209283861085146102c057858852602088019490811561029f575060011461058f5761024287610236818903826106aa565b600360005294509192917fc2575a0e9e593c00f959f8c92f12db2869c3395a3b0502d05e2516446f71f85b5b8386106105d75750505091019050610236826102423880610226565b8054858701529482019481016105bb565b93607f169361055c565b3461010e57604036600319011261010e5761060b610335565b6024359081151580920361010e57336000526007602052610630816040600020610823565b60ff1981541660ff841617905560405191825260018060a01b0316907f17307eab39ab6107e8899845ad3d59bd9653f200f220920489ca2b5937696c3160203392a3005b634e487b7160e01b600052604160045260246000fd5b602081019081106001600160401b038211176106a557604052565b610674565b90601f801991011681019081106001600160401b038211176106a557604052565b6001600160401b0381116106a557601f01601f191660200190565b608036600319011261010e576106fa610335565b61070261034b565b606435916001600160401b03831161010e573660238401121561010e5782600401359161072e836106cb565b9261073c60405194856106aa565b808452366024828701011161010e5760208160009260246104809801838801378501015260443591610a92565b3461010e57602036600319011261010e576107856004356108a9565b156107c05760006040516107988161068a565b526102426040516107a88161068a565b60008152604051918291602083526020830190610181565b604051630a14c4b560e41b8152600490fd5b3461010e57604036600319011261010e57602060ff6108176107f2610335565b6107fa61034b565b6001600160a01b0390911660009081526007855260409020610823565b54166040519015158152f35b9060018060a01b0316600052602052604060002090565b8060009081548110610859575b604051636f96cda160e11b8152600490fd5b81526004906020918083526040928383205494600160e01b86161561088057505050610847565b93929190935b851561089457505050505090565b60001901808352818552838320549550610886565b600054811090816108b8575090565b90506000526004602052600160e01b604060002054161590565b906108dc8361083a565b6001600160a01b0383811692828216849003610a81576000868152600660205260409020805490926109216001600160a01b03881633908114908414171590565b1590565b610a38575b8216958615610a26576109799361095792610a1c575b506001600160a01b0316600090815260056020526040902090565b80546000190190556001600160a01b0316600090815260056020526040902090565b80546001019055600160e11b804260a01b8517176109a1866000526004602052604060002090565b558116156109d2575b507fddf252ad1be2c89b69c2b068fc378daa952ba7f163c4a11628f55a4df523b3ef600080a4565b600184016109ea816000526004602052604060002090565b54156109f7575b506109aa565b60005481146109f157610a14906000526004602052604060002090565b5538806109f1565b600090553861093c565b604051633a954ecd60e21b8152600490fd5b610a6a61091d610a6333610a5e8b60018060a01b03166000526007602052604060002090565b610823565b5460ff1690565b1561092657604051632ce44b5f60e11b8152600490fd5b60405162a1148160e81b8152600490fd5b929190610aa08282866108d2565b803b610aad575b50505050565b610ab693610b4c565b15610ac45738808080610aa7565b6040516368d2bf6b60e11b8152600490fd5b9081602091031261010e57516101d2816100fc565b6001600160a01b0391821681529116602082015260408101919091526080606082018190526101d292910190610181565b3d15610b47573d90610b2d826106cb565b91610b3b60405193846106aa565b82523d6000602084013e565b606090565b92602091610b75936000604051809681958294630a85bd0160e11b9a8b85523360048601610aeb565b03926001600160a01b03165af160009181610bc5575b50610bb757610b98610b1c565b80519081610bb2576040516368d2bf6b60e11b8152600490fd5b602001fd5b6001600160e01b0319161490565b610be791925060203d8111610bee575b610bdf81836106aa565b810190610ad6565b9038610b8b565b503d610bd556fea2646970667358221220fb5f5b59f72869d3860166ed360d251b1b81fca8ee4761c396f86ba6c3c044b764736f6c63430008140033",
  "linkReferences": {},
  "deployedLinkReferences": {}
}