{
  "_format": "hh-sol-artifact-1",
  "contractName": "Troll",
  "sourceName": "contracts/test/TestERC721A.sol",
  "abi": [
    {
      "inputs": [],
      "stateMutability": "nonpayable",
      "type": "constructor"
    },
    {
      "inputs": [],
      "name": "ApprovalCallerNotOwnerNorApproved",
      "type": "error"
    },
    {
      "inputs": [],
      "name": "ApprovalQueryForNonexistentToken",
      "type": "error"
    },
    {
      "inputs": [],
      "name": "BalanceQueryForZeroAddress",
      "type": "error"
    },
    {
      "inputs": [],
      "name": "MintERC2309QuantityExceedsLimit",
      "type": "error"
    },
    {
      "inputs": [],
      "name": "MintToZeroAddress",
      "type": "error"
    },
    {
      "inputs": [],
      "name": "MintZeroQuantity",
      "type": "error"
    },
    {
      "inputs": [
        {
          "internalType": "address",
          "name": "owner",
          "type": "address"
        }
      ],
      "name": "OwnableInvalidOwner",
      "type": "error"
    },
    {
      "inputs": [
        {
          "internalType": "address",
          "name": "account",
          "type": "address"
        }
      ],
      "name": "OwnableUnauthorizedAccount",
      "type": "error"
    },
    {
      "inputs": [],
      "name": "OwnerQueryForNonexistentToken",
      "type": "error"
    },
    {
      "inputs": [],
      "name": "OwnershipNotInitializedForExtraData",
      "type": "error"
    },
    {
      "inputs": [],
      "name": "ReentrancyGuardReentrantCall",
      "type": "error"
    },
    {
      "inputs": [],
      "name": "TransferCallerNotOwnerNorApproved",
      "type": "error"
    },
    {
      "inputs": [],
      "name": "TransferFromIncorrectOwner",
      "type": "error"
    },
    {
      "inputs": [],
      "name": "TransferToNonERC721ReceiverImplementer",
      "type": "error"
    },
    {
      "inputs": [],
      "name": "TransferToZeroAddress",
      "type": "error"
    },
    {
      "inputs": [],
      "name": "URIQueryForNonexistentToken",
      "type": "error"
    },
    {
      "anonymous": false,
      "inputs": [
        {
          "indexed": true,
          "internalType": "address",
          "name": "owner",
          "type": "address"
        },
        {
          "indexed": true,
          "internalType": "address",
          "name": "approved",
          "type": "address"
        },
        {
          "indexed": true,
          "internalType": "uint256",
          "name": "tokenId",
          "type": "uint256"
        }
      ],
      "name": "Approval",
      "type": "event"
    },
    {
      "anonymous": false,
      "inputs": [
        {
          "indexed": true,
          "internalType": "address",
          "name": "owner",
          "type": "address"
        },
        {
          "indexed": true,
          "internalType": "address",
          "name": "operator",
          "type": "address"
        },
        {
          "indexed": false,
          "internalType": "bool",
          "name": "approved",
          "type": "bool"
        }
      ],
      "name": "ApprovalForAll",
      "type": "event"
    },
    {
      "anonymous": false,
      "inputs": [
        {
          "indexed": true,
          "internalType": "uint256",
          "name": "fromTokenId",
          "type": "uint256"
        },
        {
          "indexed": false,
          "internalType": "uint256",
          "name": "toTokenId",
          "type": "uint256"
        },
        {
          "indexed": true,
          "internalType": "address",
          "name": "from",
          "type": "address"
        },
        {
          "indexed": true,
          "internalType": "address",
          "name": "to",
          "type": "address"
        }
      ],
      "name": "ConsecutiveTransfer",
      "type": "event"
    },
    {
      "anonymous": false,
      "inputs": [
        {
          "indexed": true,
          "internalType": "address",
          "name": "previousOwner",
          "type": "address"
        },
        {
          "indexed": true,
          "internalType": "address",
          "name": "newOwner",
          "type": "address"
        }
      ],
      "name": "OwnershipTransferred",
      "type": "event"
    },
    {
      "anonymous": false,
      "inputs": [
        {
          "indexed": true,
          "internalType": "address",
          "name": "from",
          "type": "address"
        },
        {
          "indexed": true,
          "internalType": "address",
          "name": "to",
          "type": "address"
        },
        {
          "indexed": true,
          "internalType": "uint256",
          "name": "tokenId",
          "type": "uint256"
        }
      ],
      "name": "Transfer",
      "type": "event"
    },
    {
      "inputs": [],
      "name": "MAX_SUPPLY",
      "outputs": [
        {
          "internalType": "uint256",
          "name": "",
          "type": "uint256"
        }
      ],
      "stateMutability": "view",
      "type": "function"
    },
    {
      "inputs": [],
      "name": "PER_MINT",
      "outputs": [
        {
          "internalType": "uint256",
          "name": "",
          "type": "uint256"
        }
      ],
      "stateMutability": "view",
      "type": "function"
    },
    {
      "inputs": [
        {
          "internalType": "address",
          "name": "to",
          "type": "address"
        },
        {
          "internalType": "uint256",
          "name": "tokenId",
          "type": "uint256"
        }
      ],
      "name": "approve",
      "outputs": [],
      "stateMutability": "payable",
      "type": "function"
    },
    {
      "inputs": [
        {
          "internalType": "address",
          "name": "owner",
          "type": "address"
        }
      ],
      "name": "balanceOf",
      "outputs": [
        {
          "internalType": "uint256",
          "name": "",
          "type": "uint256"
        }
      ],
      "stateMutability": "view",
      "type": "function"
    },
    {
      "inputs": [
        {
          "internalType": "uint256",
          "name": "tokenId",
          "type": "uint256"
        }
      ],
      "name": "getApproved",
      "outputs": [
        {
          "internalType": "address",
          "name": "",
          "type": "address"
        }
      ],
      "stateMutability": "view",
      "type": "function"
    },
    {
      "inputs": [
        {
          "internalType": "address",
          "name": "owner",
          "type": "address"
        },
        {
          "internalType": "address",
          "name": "operator",
          "type": "address"
        }
      ],
      "name": "isApprovedForAll",
      "outputs": [
        {
          "internalType": "bool",
          "name": "",
          "type": "bool"
        }
      ],
      "stateMutability": "view",
      "type": "function"
    },
    {
      "inputs": [
        {
          "internalType": "address",
          "name": "to",
          "type": "address"
        },
        {
          "internalType": "uint256",
          "name": "quantity",
          "type": "uint256"
        }
      ],
      "name": "mint",
      "outputs": [],
      "stateMutability": "nonpayable",
      "type": "function"
    },
    {
      "inputs": [],
      "name": "mintStatus",
      "outputs": [
        {
          "internalType": "bool",
          "name": "",
          "type": "bool"
        }
      ],
      "stateMutability": "view",
      "type": "function"
    },
    {
      "inputs": [],
      "name": "name",
      "outputs": [
        {
          "internalType": "string",
          "name": "",
          "type": "string"
        }
      ],
      "stateMutability": "view",
      "type": "function"
    },
    {
      "inputs": [],
      "name": "owner",
      "outputs": [
        {
          "internalType": "address",
          "name": "",
          "type": "address"
        }
      ],
      "stateMutability": "view",
      "type": "function"
    },
    {
      "inputs": [
        {
          "internalType": "uint256",
          "name": "tokenId",
          "type": "uint256"
        }
      ],
      "name": "ownerOf",
      "outputs": [
        {
          "internalType": "address",
          "name": "",
          "type": "address"
        }
      ],
      "stateMutability": "view",
      "type": "function"
    },
    {
      "inputs": [],
      "name": "renounceOwnership",
      "outputs": [],
      "stateMutability": "nonpayable",
      "type": "function"
    },
    {
      "inputs": [
        {
          "internalType": "address",
          "name": "from",
          "type": "address"
        },
        {
          "internalType": "address",
          "name": "to",
          "type": "address"
        },
        {
          "internalType": "uint256",
          "name": "tokenId",
          "type": "uint256"
        }
      ],
      "name": "safeTransferFrom",
      "outputs": [],
      "stateMutability": "payable",
      "type": "function"
    },
    {
      "inputs": [
        {
          "internalType": "address",
          "name": "from",
          "type": "address"
        },
        {
          "internalType": "address",
          "name": "to",
          "type": "address"
        },
        {
          "internalType": "uint256",
          "name": "tokenId",
          "type": "uint256"
        },
        {
          "internalType": "bytes",
          "name": "_data",
          "type": "bytes"
        }
      ],
      "name": "safeTransferFrom",
      "outputs": [],
      "stateMutability": "payable",
      "type": "function"
    },
    {
      "inputs": [
        {
          "internalType": "address",
          "name": "operator",
          "type": "address"
        },
        {
          "internalType": "bool",
          "name": "approved",
          "type": "bool"
        }
      ],
      "name": "setApprovalForAll",
      "outputs": [],
      "stateMutability": "nonpayable",
      "type": "function"
    },
    {
      "inputs": [
        {
          "internalType": "bool",
          "name": "status",
          "type": "bool"
        }
      ],
      "name": "setMintStatus",
      "outputs": [],
      "stateMutability": "nonpayable",
      "type": "function"
    },
    {
      "inputs": [
        {
          "internalType": "string",
          "name": "tokenURI_",
          "type": "string"
        }
      ],
      "name": "setTokenURI",
      "outputs": [],
      "stateMutability": "nonpayable",
      "type": "function"
    },
    {
      "inputs": [
        {
          "internalType": "bytes4",
          "name": "interfaceId",
          "type": "bytes4"
        }
      ],
      "name": "supportsInterface",
      "outputs": [
        {
          "internalType": "bool",
          "name": "",
          "type": "bool"
        }
      ],
      "stateMutability": "view",
      "type": "function"
    },
    {
      "inputs": [],
      "name": "symbol",
      "outputs": [
        {
          "internalType": "string",
          "name": "",
          "type": "string"
        }
      ],
      "stateMutability": "view",
      "type": "function"
    },
    {
      "inputs": [
        {
          "internalType": "uint256",
          "name": "tokenId",
          "type": "uint256"
        }
      ],
      "name": "tokenURI",
      "outputs": [
        {
          "internalType": "string",
          "name": "",
          "type": "string"
        }
      ],
      "stateMutability": "view",
      "type": "function"
    },
    {
      "inputs": [],
      "name": "totalSupply",
      "outputs": [
        {
          "internalType": "uint256",
          "name": "",
          "type": "uint256"
        }
      ],
      "stateMutability": "view",
      "type": "function"
    },
    {
      "inputs": [
        {
          "internalType": "address",
          "name": "from",
          "type": "address"
        },
        {
          "internalType": "address",
          "name": "to",
          "type": "address"
        },
        {
          "internalType": "uint256",
          "name": "tokenId",
          "type": "uint256"
        }
      ],
      "name": "transferFrom",
      "outputs": [],
      "stateMutability": "payable",
      "type": "function"
    },
    {
      "inputs": [
        {
          "internalType": "address",
          "name": "newOwner",
          "type": "address"
        }
      ],
      "name": "transferOwnership",
      "outputs": [],
      "stateMutability": "nonpayable",
      "type": "function"
    },
    {
      "inputs": [],
      "name": "withdrawETH",
      "outputs": [],
      "stateMutability": "nonpayable",
      "type": "function"
    },
    {
      "stateMutability": "payable",
      "type": "receive"
    }
  ],
  "bytecode": "0x6080604052346200033657620000146200033b565b6200001e6200033b565b815190916001600160401b0380831162000248576002546001938482811c92169384156200032b575b6020948584101462000227578190601f93848111620002d4575b5085908483116001146200026a576000926200025e575b5050600019600383901b1c191690851b176002555b8451918211620002485760039283548581811c911680156200023d575b828210146200022757828111620001dc575b50809183116001146200017257508192939460009262000166575b505060001982841b1c191690831b1790555b6000805533156200014d5760088054336001600160a01b0319821681179092556040519291906001600160a01b03167f8be0079c531659141344cd1fd0a4f28419497f9722a3daafe3b4186f6b6457e0600080a36009556112e890816200036e8239f35b604051631e4fbdf760e01b815260006004820152602490fd5b015190503880620000d7565b90601f198316958460005282600020926000905b888210620001c457505083869796959610620001ab575b505050811b019055620000e9565b015160001983861b60f8161c191690553880806200019d565b80888596829496860151815501950193019062000186565b84600052816000208380860160051c8201928487106200021d575b0160051c019086905b82811062000210575050620000bc565b6000815501869062000200565b92508192620001f7565b634e487b7160e01b600052602260045260246000fd5b90607f1690620000aa565b634e487b7160e01b600052604160045260246000fd5b01519050388062000078565b90879350601f198316916002600052876000209260005b89828210620002bd5750508411620002a3575b505050811b016002556200008d565b015160001960f88460031b161c1916905538808062000294565b8385015186558b9790950194938401930162000281565b9091506002600052856000208480850160051c82019288861062000321575b918991869594930160051c01915b8281106200031157505062000061565b6000815585945089910162000301565b92508192620002f3565b91607f169162000047565b600080fd5b60408051919082016001600160401b0381118382101762000248576040526005825264151c9bdb1b60da1b602083015256fe6080604052600436101561001b575b361561001957600080fd5b005b60003560e01c806301ffc9a71461019b57806306fdde0314610196578063081812fc14610191578063095ea7b31461018c57806318160ddd146101875780631f85e3ca1461018257806323b872dd1461017d57806332cb6b0c1461017857806340c10f191461017357806342842e0e1461016e5780636352211e1461016957806370a0823114610164578063715018a61461015f5780638da5cb5b1461015a57806395d89b41146101555780639da3f8fd14610150578063a22cb4651461014b578063b88d4fde14610146578063c637b6e514610141578063c87b56dd1461013c578063e086e5ec14610137578063e0df5b6f14610132578063e985e9c51461012d5763f2fde38b0361000e57610d5e565b610d0d565b610be1565b610b77565b610a68565b610a4c565b6109c9565b6108d5565b6108b2565b61080e565b6107e5565b610787565b61072c565b6106fd565b6106da565b61054e565b610531565b61051f565b6104b1565b61048e565b6103d9565b610359565b610279565b6101b7565b6001600160e01b03198116036101b257565b600080fd5b346101b25760203660031901126101b25760206004356101d6816101a0565b63ffffffff60e01b166301ffc9a760e01b8114908115610214575b8115610203575b506040519015158152f35b635b5e139f60e01b149050386101f8565b6380ac58cd60e01b811491506101f1565b919082519283825260005b848110610251575050826000602080949584010152601f8019910116010190565b602081830181015184830182015201610230565b906020610276928181520190610225565b90565b346101b257600080600319360112610356576040518160025461029b81610e12565b8084529060019081811690811561032e57506001146102d5575b6102d1846102c58188038261098d565b60405191829182610265565b0390f35b60028352602094507f405787fa12a823e0f2b7631cc41b3ba8828b3321ca811111fa75cd3aa3bb5ace5b82841061031b57505050816102d1936102c592820101936102b5565b80548585018701529285019281016102ff565b6102d196506102c59450602092508593915060ff191682840152151560051b820101936102b5565b80fd5b346101b25760203660031901126101b25760043561037681610f70565b1561039b576000526006602052602060018060a01b0360406000205416604051908152f35b6040516333d1c03960e21b8152600490fd5b600435906001600160a01b03821682036101b257565b602435906001600160a01b03821682036101b257565b60403660031901126101b2576103ed6103ad565b6024356001600160a01b038061040283610f01565b169081330361045d575b600083815260066020526040812080546001600160a01b0319166001600160a01b0387161790559316907f8c5be1e5ebec7d5bd14f71427d1e84f3dd0314c0f7b2291e5b200ac8c7c3b9258480a480f35b81600052600760205260ff610476336040600020610eea565b541661040c576040516367d9dca160e11b8152600490fd5b346101b25760003660031901126101b25760206000546001549003604051908152f35b346101b25760203660031901126101b2576004358015158091036101b2576104d7610de6565b60ff8019600b5416911617600b55600080f35b60609060031901126101b2576001600160a01b039060043582811681036101b2579160243590811681036101b2579060443590565b61001961052b366104ea565b91610f99565b346101b25760003660031901126101b25760206040516107e88152f35b346101b2576040806003193601126101b2576105686103ad565b602435916002600954146106ca57600260095580516105868161096d565b60009384825284549381156106b95761059e81610ed0565b80546801000000000000000184020190556000858152600460205260409020600192906001600160a01b038316904260a01b85841460e11b17821790558187019684807fddf252ad1be2c89b69c2b068fc378daa952ba7f163c4a11628f55a4df523b3ef9280858d868180a4015b8981036106aa575050501561069a57858755813b610633575b866106306001600955565b80f35b85039180805b610656575b50505050505081540361035657388080808080610625565b1561068d575b8661067261066e8684870196866111e0565b1590565b61067c5781610639565b85516368d2bf6b60e11b8152600490fd5b85831061065c578061063e565b8451622e076360e81b8152600490fd5b80848c858180a401859061060c565b835163b562e8dd60e01b8152600490fd5b51633ee5aeb560e01b8152600490fd5b6100196106e6366104ea565b90604051926106f48461096d565b6000845261112b565b346101b25760203660031901126101b25760206001600160a01b03610723600435610f01565b16604051908152f35b346101b25760203660031901126101b2576001600160a01b0361074d6103ad565b16801561077557600052600560205260206001600160401b0360406000205416604051908152f35b6040516323d3ad8160e21b8152600490fd5b346101b257600080600319360112610356576107a1610de6565b600880546001600160a01b0319811690915581906001600160a01b03167f8be0079c531659141344cd1fd0a4f28419497f9722a3daafe3b4186f6b6457e08280a380f35b346101b25760003660031901126101b2576008546040516001600160a01b039091168152602090f35b346101b257600080600319360112610356576040518160035461083081610e12565b8084529060019081811690811561032e5750600114610859576102d1846102c58188038261098d565b60038352602094507fc2575a0e9e593c00f959f8c92f12db2869c3395a3b0502d05e2516446f71f85b5b82841061089f57505050816102d1936102c592820101936102b5565b8054858501870152928501928101610883565b346101b25760003660031901126101b257602060ff600b54166040519015158152f35b346101b25760403660031901126101b2576108ee6103ad565b602435908115158092036101b257336000526007602052610913816040600020610eea565b60ff1981541660ff841617905560405191825260018060a01b0316907f17307eab39ab6107e8899845ad3d59bd9653f200f220920489ca2b5937696c3160203392a3005b634e487b7160e01b600052604160045260246000fd5b602081019081106001600160401b0382111761098857604052565b610957565b90601f801991011681019081106001600160401b0382111761098857604052565b6001600160401b03811161098857601f01601f191660200190565b60803660031901126101b2576109dd6103ad565b6109e56103c3565b606435916001600160401b0383116101b257366023840112156101b257826004013591610a11836109ae565b92610a1f604051948561098d565b80845236602482870101116101b2576020816000926024610019980183880137850101526044359161112b565b346101b25760003660031901126101b257602060405160048152f35b346101b2576020806003193601126101b257610a85600435610f70565b15610b2557604051600091600a54610a9c81610e12565b80845290600190818116908115610b055750600114610ac5576102d1846102c58188038261098d565b919350600a60005283600020916000925b828410610af257505050816102d1936102c592820101936102b5565b8054858501870152928501928101610ad6565b60ff1916858501525050151560051b82010191506102c5816102d16102b5565b6084906040519062461bcd60e51b82526004820152602560248201527f54686520656e6572677920686173206e6f7420796574206265656e20636f6c6c6044820152641958dd195960da1b6064820152fd5b346101b25760008060031936011261035657610b91610de6565b8080808047335af1610ba1610ea0565b5015610baa5780f35b60405162461bcd60e51b815260206004820152600f60248201526e1dda5d1a191c985dc819985a5b1959608a1b6044820152606490fd5b346101b2576020806003193601126101b2576001600160401b036004358181116101b257366023820112156101b25780600401359182116101b257602490368284830101116101b257610c32610de6565b610c4683610c41600a54610e12565b610e4c565b600093601f8411600114610c875750928293600093610c7a575b505050600019600383901b1c191660019190911b17600a55005b0101359050388080610c60565b600a600052601f198416947fc65a7bb8d6351c1cf70c95a316cc6a92839c986682d98bc35f958f4883f9d2a8939181905b878210610cf35750508460019610610cd7575b50505050811b01600a55005b60001960f88660031b161c199201013516905538808080610ccb565b806001849786839596890101358155019601920190610cb8565b346101b25760403660031901126101b257602060ff610d52610d2d6103ad565b610d356103c3565b6001600160a01b0390911660009081526007855260409020610eea565b54166040519015158152f35b346101b25760203660031901126101b257610d776103ad565b610d7f610de6565b6001600160a01b03908116908115610dcd57600880546001600160a01b031981168417909155167f8be0079c531659141344cd1fd0a4f28419497f9722a3daafe3b4186f6b6457e0600080a3005b604051631e4fbdf760e01b815260006004820152602490fd5b6008546001600160a01b03163303610dfa57565b60405163118cdaa760e01b8152336004820152602490fd5b90600182811c92168015610e42575b6020831014610e2c57565b634e487b7160e01b600052602260045260246000fd5b91607f1691610e21565b601f8111610e58575050565b600090600a825260208220906020601f850160051c83019410610e96575b601f0160051c01915b828110610e8b57505050565b818155600101610e7f565b9092508290610e76565b3d15610ecb573d90610eb1826109ae565b91610ebf604051938461098d565b82523d6000602084013e565b606090565b6001600160a01b0316600090815260056020526040902090565b9060018060a01b0316600052602052604060002090565b8060009081548110610f20575b604051636f96cda160e11b8152600490fd5b81526004906020918083526040928383205494600160e01b861615610f4757505050610f0e565b93929190935b8515610f5b57505050505090565b60001901808352818552838320549550610f4d565b60005481109081610f7f575090565b90506000526004602052600160e01b604060002054161590565b90610fa383610f01565b6001600160a01b038381169282821684900361111a57600086815260066020526040902080549092610fe46001600160a01b03881633908114908414171590565b6110d1575b82169586156110bf5761101293611005926110b5575b50610ed0565b8054600019019055610ed0565b80546001019055600160e11b804260a01b85171761103a866000526004602052604060002090565b5581161561106b575b507fddf252ad1be2c89b69c2b068fc378daa952ba7f163c4a11628f55a4df523b3ef600080a4565b60018401611083816000526004602052604060002090565b5415611090575b50611043565b600054811461108a576110ad906000526004602052604060002090565b55388061108a565b6000905538610fff565b604051633a954ecd60e21b8152600490fd5b61110361066e6110fc336110f78b60018060a01b03166000526007602052604060002090565b610eea565b5460ff1690565b15610fe957604051632ce44b5f60e11b8152600490fd5b60405162a1148160e81b8152600490fd5b929190611139828286610f99565b803b611146575b50505050565b61114f93611289565b1561115d5738808080611140565b6040516368d2bf6b60e11b8152600490fd5b908160209103126101b25751610276816101a0565b610276939260809260018060a01b031682526000602083015260408201528160608201520190610225565b6001600160a01b03918216815291166020820152604081019190915260806060820181905261027692910190610225565b61120960209160009394604051948580948193630a85bd0160e11b998a84523360048501611184565b03926001600160a01b03165af160009181611259575b5061124b5761122c610ea0565b80519081611246576040516368d2bf6b60e11b8152600490fd5b602001fd5b6001600160e01b0319161490565b61127b91925060203d8111611282575b611273818361098d565b81019061116f565b903861121f565b503d611269565b92602091611209936000604051809681958294630a85bd0160e11b9a8b855233600486016111af56fea2646970667358221220109a44288115744977cd1d0c70fa663dfeded795a2e142b0632c66cf76559e5a64736f6c63430008140033",
  "linkReferences": {},
  "deployedLinkReferences": {}
}